:020000040800F2
:1000000068060020CD0100089F040008D302000804
:100010009D040008CF02000847050008000000000A
:10002000000000000000000000000000A304000821
:10003000D102000800000000A1040008A504000887
:10004000E7010008E7010008E7010008E7010008F0
:10005000E7010008E7010008E7010008E7010008E0
:10006000E7010008E7010008E7010008E7010008D0
:10007000E7010008E7010008E7010008E7010008C0
:10008000E7010008E7010008E7010008E7010008B0
:10009000E7010008E7010008E7010008E7010008A0
:1000A000E7010008E7010008E7010008E701000890
:1000B000E7010008E7010008E7010008E701000880
:1000C000E7010008E7010008E7010008E701000870
:1000D000E7010008E7010008E7010008E701000860
:1000E000E7010008E7010008E7010008E701000850
:1000F000E7010008E7010008E7010008E701000840
:10010000E7010008E7010008E7010008E70100082F
:10011000E7010008E7010008E7010008E70100081F
:10012000E7010008E7010008E7010008E70100080F
:1001300000F002F800F03AF80AA090E8000C8244BF
:100140008344AAF10107DA4501D100F02FF8AFF29C
:10015000090EBAE80F0013F0010F18BFFB1A43F0A5
:1001600001031847A0040000C0040000103A24BF97
:1001700078C878C1FAD8520724BF30C830C144BF0C
:1001800004680C607047000000230024002500264E
:10019000103A28BF78C1FBD8520728BF30C148BFEA
:1001A0000B6070471FB51FBD10B510BD00F058F8AB
:1001B0001146FFF7F7FF00F0C7F900F076F803B437
:1001C000FFF7F2FF03BC00F07BF80000094880470E
:1001D00009480047FEE7FEE7FEE7FEE7FEE7FEE729
:1001E000FEE7FEE7FEE7FEE704480549054A064B41
:1001F0007047000045050008310100086800002034
:100200006806002068020020680200204FF000020B
:1002100000B5134694469646203922BFA0E80C50FC
:10022000A0E80C50B1F12001BFF4F7AF090728BFD7
:10023000A0E80C5048BF0CC05DF804EB890028BF53
:1002400040F8042B08BF704748BF20F8022B11F07C
:10025000804F18BF00F8012B7047704770477047F8
:10026000754600F029F8AE4605006946534620F071
:100270000700854618B020B5FFF7B6FFBDE820405F
:100280004FF000064FF000074FF000084FF0000B52
:1002900021F00701AC46ACE8C009ACE8C009ACE805
:1002A000C009ACE8C0098D4670470446AFF3008032
:1002B0002046FFF784FF000000487047040000203C
:1002C00001491820ABBEFEE7260002007047FEE79A
:1002D0007047FEE7044908B58A6902438A61896963
:1002E0000140009108BD000000100240F0B50A680E
:1002F000C2F30F2595FAA5F2B2FA82F369E0012262
:100300009A402A4264D0082B03D240F201129A404C
:1003100006E0A3F108024FF00114944044F080621B
:100320004C68082C0BD10C69C668170A97FAA7F716
:10033000B7FA87F726EA1226BC402643C66092FA2F
:10034000A2F700EB1264B7FA87F74FEA870C0F2782
:10035000266807FA0CF7BE4392FAA2F7D1F804E038
:10036000B7FA87F7BF000EFA07FE46EA0E062660C8
:100370004F68012F01D0092F2AD192FAA2F7B7FABC
:1003800087F74FEA870C032707FA0CF7BE4392FA68
:10039000A2F7B7FA87F7D1F808E0BF000EFA07FE18
:1003A00092FAA2FC46EA0E06BCFA8CFC4FEA8C0ECE
:1003B0004FF0040C26600CFA0EFC92FAA2F2B2FA8C
:1003C00082F2CF68920026EA0C0697403E432660F0
:1003D0005B1C35FA03F292D10020F0BDC268C1F374
:1003E0000F2121EA02030A4043EA024101617047FA
:1003F0004FF47A71B0FBF1F14FF0E020491E4161FA
:1004000000218161052101617047000001490860F8
:10041000704700000000002008B54FF0E0210A6995
:100420000092421C00D0401C0A69D20300D5401E35
:100430000028F9D108BD00002DE9F04186B0142153
:100440006846FFF7E3FE4020FFF744FF1020FFF768
:1004500041FF0420FFF73EFF0820FFF73BFF0D4858
:10046000202142F220040161DFF82C80C8F810102E
:100470000125022600278DE8F0006946FFF736FFC8
:100480008DE8F00069464046FFF730FF06B0BDE852
:10049000F081000000180140000C0140FEE7FEE77B
:1004A0007047704770470000234810B5016821F07D
:1004B000070141F002010160016801F00701022912
:1004C000FAD11E48016841F4803101600168C1F32E
:1004D00040410029FAD0416821F47C1141F4E8112F
:1004E0004160016841F0807101600168C1F34061C1
:1004F0000029FAD0416821F0F0014160416821F4FF
:10050000E06141F480614160416821F460514160E3
:10051000416821F0030141F002014160416801F0AE
:100520000C010829FAD1064C2046FFF761FF20464E
:10053000BDE81040FFF76ABF0020024000100240F3
:1005400000A24A047047FEE7274808B5816941F0D8
:1005500001018161816901F001010091C16941F0EE
:100560008051C161C06900F0805000901F4801684F
:100570004FF6FF0211401E4A41F4407111430160E1
:100580000068C0F30220C0F10702042A00D9042247
:10059000011D072901D2002000E0C01E0121914069
:1005A000491E81400801134981F8140D1248416821
:1005B00021F0E06141F000714160FFF775FFFFF746
:1005C0003BFF0E4D0E4E42F220044FF4FA772146C7
:1005D0002846FFF703FF21463046FFF7FFFE384667
:1005E000FFF71AFFF3E70000001002400CED00E0F7
:1005F0000000FA050FE000E000000140000C01409F
:10060000001801402406000800000020040000003B
:100610006C010008280600080400002064060000A1
:080620008801000800127A00B5
:0400000508000131BD
:00000001FF
