:020000040800F2
:1000000068080020E50100084F310008552E00085F
:100010004D310008D91100082D37000800000000FC
:100020000000000000000000000000005331000844
:100030001F1200080000000051310008553100086F
:10004000FF010008FF010008FF010008FF01000890
:10005000FF010008FF01000821120008FF0100084D
:10006000271200082D12000833120008FF010008B3
:10007000FF010008FF010008DD110008E911000878
:10008000FF010008FF010008FF010008FF01000850
:10009000FF010008FF010008FF010008FF01000840
:1000A000B9310008FF010008FF010008FF01000846
:1000B000FF010008FF010008FF010008FF01000820
:1000C000FF010008FF010008FF010008FF01000810
:1000D000FF01000821370008FF010008FF010008A8
:1000E000FF010008FF010008FF010008FF010008F0
:1000F000FF010008FF010008FF010008FF010008E0
:10010000FF010008FF010008FF010008FF010008CF
:10011000FF010008FF010008C5310008FF010008C9
:10012000FF010008FF010008FF010008FF010008AF
:1001300000F002F800F047F80AA090E8000C8244B2
:100140008344AAF10107DA4501D100F03CF8AFF28F
:10015000090EBAE80F0013F0010F18BFFB1A43F0A5
:1001600001031847D4470000F4470000103A24BFA9
:1001700078C878C1FAD8520724BF30C830C144BF0C
:1001800004680C607047000000230024002500264E
:10019000103A28BF78C1FBD8520728BF30C148BFEA
:1001A0000B607047662903F0F286002070471FB588
:1001B00000F0E6FA04000020002103F0C3FBE06039
:1001C0001FBD10B510BD00F0D7FB1146FFF7EFFFC4
:1001D00003F05EFB00F0F5FB03B4FFF7F2FF03BC96
:1001E00000F038FC0948804709480047FEE7FEE771
:1001F000FEE7FEE7FEE7FEE7FEE7FEE7FEE7FEE7D7
:1002000004480549054A064B70470000B73100080D
:1002100031010008680200206808002068040020FE
:10022000680400200FB47CB50C0009AA009001D02E
:100230002044401E084B7B4469460190089800F01A
:100240007EFA05461CB10020694600F08BFA28466C
:100250007CBC5DF814FB0000350500002DE9F04181
:100260000E460446002020622046E168884730B3ED
:10027000252805D0D4E901219047206A401CF2E7E7
:10028000E168204600278847050018D0A5F1410005
:10029000192802D820354FF40067324629462046F7
:1002A0002760FFF77FFF40B1012804D0F61D26F03C
:1002B00007060836D8E7361DD6E72846DAE7206A6B
:1002C000BDE8F0814FF0000200B513469446964613
:1002D000203922BFA0E80C50A0E80C50B1F1200159
:1002E000BFF4F7AF090728BFA0E80C5048BF0CC007
:1002F0005DF804EB890028BF40F8042B08BF704765
:1003000048BF20F8022B11F0804F18BF00F8012BD6
:10031000704770477047704770472DE9FF4F0C4694
:100320001E464FF0FF378BB0D2E90001DDF8608048
:100330000A908A46C1F30A5505B93D460021084690
:100340004FF00000BAF1000F00F4400005DA00EBB6
:1003500080004FF4400101EA50004FEA9059B9F192
:10036000010F00DDB9460A9850EA4A000ED044F663
:100370001050A5F2FF3545432F14B8F1000F1ED0E1
:100380007542291E1EDDC9F100021CE0B8F1010F03
:100390004FF0000001D0302103E0F24305E021548A
:1003A000401CB042FBDB30460022002121540B9957
:1003B000C1F80880C1E900200FB0BDE8F08FBD1B77
:1003C0006D1CDEE74A4600DA694206A800F062FAD0
:1003D00006AB93E8070003AB83E8070050460A9991
:1003E00000F03FFB8DE80700A0F500501F3800909B
:1003F0000398002D09DD42F21F014A46084403A973
:100400000390684600F09EFD08E0A0F500504A46C3
:100410001F3803A90390684600F0A8FD8DE8070087
:100420000004000C03D04FF0FF30410800E01046FC
:10043000B8F1000F03D00022009215461EE0751E91
:1004400005D400F0A1F9303262556D1EF9D5B346DE
:100450000122084302D000227F1C04E020783028CB
:1004600001D100227F1E002A099786D01DE0112DA0
:1004700007DA00F089F9303262556D1C50EA01024A
:10048000F5D1084302D00098C8B10EE00021681EE3
:1004900005E0235C625C63542254401E491C814287
:1004A000F7DBAB46A81B401E0990002004F80B00A8
:1004B0000B98099AC0F80880C0E9002B7CE7112648
:1004C0004FF0000859E72DE9F04F88460446D21D49
:1004D00022F0070191B0D1E90001CDE90A0103F052
:1004E00026F902460B98C00F01D02D2007E02068A6
:1004F000810701D52B2002E0202101EAC000032A58
:10050000099001D0072A05DB03464146204600F04A
:1005100081F90BE12078800601D5E06900E0062032
:10052000B8F1650F814606D0B8F1660F18D0B8F162
:10053000670F70D131E00020B9F1110F009001DB9D
:10054000112301E009F101030AAA01A90CA8FFF790
:10055000E4FEDDE90C70002609F10105834647E061
:1005600001204B4600904FF000470AAA01A90CA8B1
:10057000FFF7D3FEDDE90DB00C995D46002610B9FA
:1005800009F101000D18B9EB050003D4C0F1FF36E5
:1005900009F10105A5EB09002BE0B9F1010F01DA22
:1005A0004FF001090020B9F1110F0090484601DD1C
:1005B000112300E003460AAA01A90CA8FFF7ADFE2B
:1005C000DDE90C704D4600268346207800070AD4EA
:1005D000AB4500DA5D4601A8012D04DD411911F893
:1005E000011C302907D04F4502DA17F1040F04DA55
:1005F000012082460FE06D1EEEE7002F02DCED1BAE
:100600003E4403E0781CA84200DD7D1CB81B00F1CD
:10061000010A4FF000472078000703D4AA4501DB08
:100620004FF0FF3A0021B7F1004F0DF143088DF86C
:10063000431024D002202B23002F01DA7F422D23E8
:100640000A21021EA0F1010000DC5FB197FBF1FC62
:1006500097FBF1F201FB1C7C17460CF1300C08F8FB
:1006600001CDEEE7A8F1010003702188090501D54D
:10067000452100E06521A0F1010800F8011C09985E
:100680000FA9A1EB0807FF1D00B10120411901EBE3
:10069000EA70A1693844081A401EA0612078C0069B
:1006A00002D42046AFF30080099828B1D4E9012193
:1006B0009047206A401C20622078C00622D5204640
:1006C000AFF300801EE0002E04DBB34502DD01A87D
:1006D000805D00E03020D4E901219047206A401C71
:1006E0002062761CAAF101005FEA000A0AD100F03C
:1006F00047F8C0680168405CD4E901219047206A4E
:10070000401C2062281EA5F10105DCDC07E0D4E9CD
:10071000012118F8010B9047206A401C2062381E06
:10072000A7F10107F3DC2046AFF30080032011B0EE
:1007300043E6000001694A1C02610878704700B571
:100740008FB0CDE901310021059105497944CDE90A
:10075000031011466846FFF781FD0FB000BD000091
:10076000E5FFFFFF0A6802F8010B0A607047D1E954
:1007700000239A4202D2531C0B6010707047000095
:10078000004870472802002030B5B0F10A024FEA55
:10079000900E71F100034EEA817EB0EB0E0061EB2A
:1007A00091014FEA101E4EEA017E10EB0E0041EB64
:1007B00011114FEA102E4EEA016E10EB0E0041EBC4
:1007C00011214FEA104E4EEA014E10EB0E0041EBA4
:1007D0001141401841F100014FEAD00040EA417058
:1007E0004FEAD10110EB80054FEA810444EA90748E
:1007F00044EB01046D1944EB0404521BA3414FF078
:10080000000348BF0A3200D530BD401C41F1000151
:1008100030BD00002DE9F0411F4604460326016863
:10082000072A01F4006004DB08B116A505E016A54F
:1008300003E008B115A500E015A521F01000206027
:10084000A069C01EA0610FB1401EA0612046AFF399
:1008500000804FB1D4E9012138469047206A401CFE
:100860002062C01C206206E0206AFAE7D4E9012178
:1008700015F8010B9047761EF8D22046AFF30080A2
:10088000BDE8F0814E414E006E616E00494E46005B
:10089000696E66002DE9F047814616468AB03348F6
:1008A00078440DC88DE80D0030487844801C03ACB6
:1008B0000DC884E80D0041F69B300844372190FBB9
:1008C000F1F290FBF1F5A5F1800501FB12041B3C50
:1008D00002D56442012000E00020DFF890A08046AD
:1008E0000027FA44AAF1BE0A0DE0E00709D032461B
:1008F000684607EB47010AEB810100F037FB8DE802
:10090000070064107F1C002CEFD1184F7F44AC3FD0
:1009100018E0E80714D007EB04100DF1180A90E86E
:100920000E008AE80E00C068F04201D198190890C4
:10093000324606A903A800F019FB03AB83E80700C1
:100940006D10641C002DE4D132466946B8F1000FE9
:1009500003A802D000F0F6FA01E000F007FBC9E9B5
:100960000001C9F808200AB0BDE8F0877C4000000B
:1009700000487047080200207546FFF7F9FFAE46B1
:1009800005006946534620F00700854618B020B59B
:10099000FFF736FCBDE820404FF000064FF000079F
:1009A0004FF000084FF0000B21F00701AC46ACE817
:1009B000C009ACE8C009ACE8C009ACE8C0098D4684
:1009C000704710B50446AFF300802046BDE81040E4
:1009D000FFF702BC4FF0013C50F8042B51F8043BE8
:1009E0009A4221D1A2EB0C03934313EACC1317D103
:1009F00050F8042B51F8043B9A4215D1A2EB0C039A
:100A0000934313EACC130BD150F8042B51F8043B59
:100A10009A4209D1A2EB0C03934313EACC13DBD027
:100A20004FF00000704700BFD01A01BAB1FA81F14F
:100A300001F0180122FA01F0CB40C1F12001DBB234
:100A4000C0B2C01A2CFA01F3D11A914311EAC311B2
:100A5000E6D1704701491820ABBEFEE72600020030
:100A600070475FEA400C08BF91F0000F4FEA8C23FB
:100A70004FEAC12243EA51514FEA1C5018BF00F51A
:100A8000F0404FEA300018BF41F000415FEA6C5C73
:100A900000F02980BCF1FF3F08BF40F08040704764
:100AA000130C06BF12044FF0100C4FF0000C130E85
:100AB00004BF12020CF1080C130F04BF12010CF159
:100AC000040C930F04BF92000CF1020CD30F04BF6F
:100AD00052000CF1010C11464FF00002A0F11F0072
:100AE000A0EB0C00704711F0004F08BF704731F0C9
:100AF00000413FF4D5AF0B0C06BF09044FF0100CBA
:100B00004FF0000C0B0E04BF09020CF1080C0B0F88
:100B100004BF09010CF1040C8B0F04BF89000CF118
:100B2000020CCB0F04BF49000CF1010CCCF12003E7
:100B3000A0EB0C0022FA03F302FA0CF241EA0301E3
:100B400000F10100704720F07F4C80EA030023F0A1
:100B50007F47ACEB070303F57C5300F0004003F143
:100B6000FF032DE980494FEA154B09B44FEA1443BE
:100B700025EA0B4E24EA03480FF2042606EB13275E
:100B800049083E785FEA320203FB0667C7F50007B3
:100B900007FB06F64FEA54374FEAD64606F102063F
:100BA00007FB066CCCF1005C4FEA1C472CEA074CB3
:100BB00007FB06F40CFB06F504EB15464FEA961608
:100BC00034BF00204FF000404FEAD13706FB07FC4E
:100BD0004FEA1C4C0CFB0BF7D21B03FB0CF761EB31
:100BE00007010CFB0EF7B0EB074072EB17420CFB52
:100BF00008F734BFA2EB0742B2EB074261EB1741A3
:100C00004FEA0C444FEA910706FB07FC4FEA1C4CE5
:100C10000CFB0BF7B0EBC74072EB573203FB0CF742
:100C200034BFA2EBC742B2EBC74261EB57310CFBBA
:100C30000EF7B0EBC70072EB57720CFB08F734BF2E
:100C4000A2EBC702B2EBC70261EB5771039F4FEAF9
:100C5000816141EA921104EBCC044FEAD1374FEAAB
:100C6000826206FB07FC42EA90124FEA80604FEA7C
:100C70001C4C0CFB0BF7D21B03FB0CF761EB0701C1
:100C80000CFB0EF7B0EB074072EB17420CFB08F7BA
:100C900034BFA2EB0742B2EB074261EB17414FEAC8
:100CA0008C554FEA910704EB9C2406FB07FC4FEAA6
:100CB0001C4C0CFB0BF7B0EBC74072EB573203FB3D
:100CC0000CF734BFA2EBC742B2EBC74261EB57311E
:100CD0000CFB0EF7B0EBC70072EB57720CFB08F77A
:100CE00034BFA2EBC702B2EBC70261EB577115EB41
:100CF0004C254FEA816141EA92114FEA82624FEA44
:100D0000D13742EA901206FB07FC44F100044FEA97
:100D100080604FEA1C4C0CFB0BF7D21B03FB0CF75B
:100D200061EB07010CFB0EF7B0EB074072EB1742CB
:100D30000CFB08F734BFA2EB0742B2EB074261EBB2
:100D4000174115EB1C154FEA813141EA92414FEAF8
:100D5000823242EA90424FEA80304FEA0C7644F108
:100D6000000448EA03434EEA0B484FF0000EB2EB92
:100D7000080C71EB030724BF624639464EEB0E0E9A
:100D80004FF0000B0018524149414BEB0B0BB2EBFB
:100D9000080C71EB03077BF1000B24BF6246394658
:100DA0004EEB0E0E4FF0000B0018524149414BEB39
:100DB0000B0BB2EB080C71EB03077BF1000B24BFAC
:100DC000624639464EEB0E0E51EA020718BF46F056
:100DD000010616EB0E7655F1000254F1000103D521
:100DE000BDE88901BDE80088BDE88901BDE800488B
:100DF000B619524141EB0101A3F101037047808014
:100E00007F7E7D7C7B7A7978777676757473727164
:100E100071706F6E6E6D6C6C6B6A6A69686867661C
:100E200066656464636362616160605F5F5E5E5DAE
:100E30005D5C5C5B5B5A5A59595858575756565522
:100E400055555454535352525251515050504F4F84
:100E50004F4E4E4D4D4D4C4C4C4B4B4B4A4A4A49D4
:100E60004949484848474747474646464545454417
:100E70004444444343434342424242414141002BA4
:100E800026D4770021D01CB54FEA370703B44FF0C2
:100E900010004FF010014FF000000FBCBDE81040F3
:100EA0000BF1010BBBF1010F08BF5FEA170722BF6F
:100EB00012F1010211F101014FF0004143F1000371
:100EC00000F0004043EA00007047F9D35708DAE722
:100ED00046EA064613F1400F4FEA16461FDD13F1AE
:100EE000200FDFBF16430A46002120335B42C8D0E3
:100EF000C3F1200746EA064602FA07F74FEA16460C
:100F000046EA0706C3F1200722FA03F201FA07F7BF
:100F100021FA03F14FF0000342EA0702B1E746EA83
:100F2000020646EA06464FEA164646EA0106BCBFF6
:100F300046EA0646360C4FF000034FF000024FF031
:100F400000019EE72DE9C048934630B491E838008F
:100F500007C831EA400C48BF34EA430C03D5FFF719
:100F6000F2FDFFF78CFFF0BCBDE800882DE9C0481A
:100F7000934630B491E8380007C810F0804F08BF9E
:100F800013F0804F03D100F005F8FFF778FFF0BCB5
:100F9000BDE8008820F07F4780EA030023F07F4C03
:100FA00007EB0C03A3F57C5300F00040A3F1FE0314
:100FB00092F0000F00F0B38095F0000F00F0778002
:100FC0002DE901494FEA11404FEA144621EA004851
:100FD00000FB06FC24EA064708FB06F607FB08F8B8
:100FE00000FB07F718EB06484CEB164C4FEA124B88
:100FF00018EB07484FEA15464CEB174022EA0B4E18
:101000000BFB06FC25EA06470EFB06F607FB0EFE69
:101010000BFB07F71EEB064E4CEB164C4FF0000691
:101020001EEB074E4CEB174B18EB0B0840F1000082
:1010300018EB0E0B58EB000840F100008F1A4FF030
:1010400000013CBFC943661B14BFB5EB040C002173
:101050003CBFC943F61B4FEA17444EEA8E0E27EAFF
:1010600004454FEA1C4704FB07622CEA074C05FBCA
:1010700007F70CFB05F604FB0CFC16EB074642EBEE
:10108000174216EB0C4642EB1C421BEB060658EBD4
:101090000202414146EA9E0601D5BDE80189B61922
:1010A000524141EB0101A3F10103BDE801894FEA7F
:1010B00014454FEA114724EA054621EA074C05FB8F
:1010C00007F406FB07F70CFB06F105FB0CFC11EB24
:1010D000074144EB17444FEA124711EB0C4144EB34
:1010E0001C4422EA074C05FB07F206FB07F70CFB42
:1010F00006F605FB0CFC16EB074642EB174216EB17
:101100000C4642EB1C456A1854F1000148BF704779
:10111000B619524141EB0101A3F10103704795F06B
:10112000000F37D04FEA11424FEA144721EA024636
:1011300024EA074C02FB07F106FB07F70CFB06F459
:1011400002FB0CFC14EB074441EB17414FEA154737
:1011500014EB0C4441EB1C4125EA074C02FB07F55C
:1011600006FB07F70CFB06F602FB0CFC16EB07462A
:1011700045EB174516EB0C4645EB1C42121951F195
:10118000000148BF7047B619524141EB0101A3F17C
:10119000010370474FEA14454FEA114724EA054618
:1011A00021EA074C05FB07F106FB07F70CFB06F2EB
:1011B0004FF0000605FB0CFC12EB074241EB174118
:1011C00012EB0C4251EB1C4148BF7047921841EBA7
:1011D0000101A3F101037047FEE70000014800F0A0
:1011E000E7BA000080010020014800F0E1BA0000E9
:1011F000C401002030B590F840500124AC40C56BCC
:101200006C60046863604368102B036803D09960C6
:101210000068C26030BD9A600068C16030BD704730
:10122000012000F061BC042000F05EBC082000F04A
:101230005BBC102000F058BC72B6FEE72DE9F04709
:1012400081460D461446104602F096FA074620469F
:1012500002F0DAFA6E688046314602F04DFD2D68E4
:1012600004462946384602F047FD214602F01AFEA0
:1012700004463146384602F03FFD064629464046C0
:1012800002F03AFD314602F0A5FBC9E90040BDE895
:10129000F08700002DE9F04F4B4F93B04949386873
:1012A00002F098FB07F10C0838600021C8F8001024
:1012B00046493846C8F8041001F0CEFD414668465C
:1012C0003A68FFF7BBFFDDE90001C7E90101381DFE
:1012D00000F0CAF8044601463A1D684600F0F2F8EC
:1012E0009DE8070010AB83E8070010AA2146684676
:1012F00000F082F89DE87000204602F0B1FCDFF8B3
:10130000D090D9F800104863284602F0A9FCD9F81B
:1013100000108863304602F0A3FCD9F80010C863BF
:10132000D8F8040002F02AFB83460591D8F80000A3
:1013300002F024FB8046381D8A46406802F01EFBFE
:101340000690381D8946006802F018FBCDE90001BF
:10135000304602F013FB04900E46284602F00EFBC6
:1013600005462046039102F009FB044602913868C5
:1013700002F004FB0B4605990246CDE90EB1069832
:10138000CDE90A09CDE90C8ADDE90001CDE90801C2
:1013900004980399CDE90606CDE904510299039119
:1013A0008DE81C000BA280211148FEF73BFF0028AE
:1013B00004DD82B20E490F4801F00EFD13B0BDE806
:1013C000F08F0000CDCCCC3D040000200000204078
:1013D0002800002025662C25662C25662C25662CE9
:1013E00025662C25662C25662C25660D0A00000036
:1013F000B8000020380100202DE9F041804607297F
:101400001BD2DFE801F01A04080C0F131700D2E911
:101410000040956811E0D2E9000594680DE092E87B
:1014200031000AE0D2E90140156806E0D2E9015036
:10143000146802E0D2E9010415680A4E314602F050
:101440005BFC07462046314602F056FC044628461F
:10145000314602F051FCC8E90074C8F80800BDE844
:10146000F081000000409C452DE9F04145680024D2
:101470004FF40006B54200DB012407680F493846E7
:1014800002F03AFC294602F00DFD4FF0FF384146CC
:1014900002F0B1FDB04200DBA41C0949384602F05D
:1014A0002BFC294602F0FEFC414602F0A4FDB042AE
:1014B00000DB241D2046BDE8F0810000D7B3DD3FEE
:1014C000D7B3DDBF2DE9F05F8246D2E900900D462B
:1014D0004FF07E56534C8046DFF84CB1534902F032
:1014E0000BFC0746062D7CD2DFE805F08C03125971
:1014F0006B7C3D464E49484602F0FEFB294602F011
:1015000069FA214602F0F8FB05464FF07F5161E091
:101510003D464FF07F51484602F0EEFB294602F06F
:1015200059FA214602F0E8FB0546594645E02146B6
:1015300002F0E2FB04460146284602F04BFA074659
:10154000B04209DD0146284602F0ACFA05463946AC
:10155000204602F0A7FA04462146284602F03AFA4D
:10156000314602F095FC6FF0010102F044FD0646A1
:101570004FF0FF373946284602F03DFD314602F074
:1015800029FA05463946204602F035FD294602F083
:1015900021FACAE90065CAF80800BDE8F09F3D4697
:1015A0004FF07F51484602F0A7FB294602F07AFC33
:1015B000214602F0A1FB1F490546404602F09CFB74
:1015C000B5E75946404602F097FB214602F094FBEE
:1015D00017490546484602F08FFB394602F0FAF9F2
:1015E000A5E70FE01349404602F086FB214602F0D2
:1015F00083FB0F490546484602F07EFB394602F060
:1016000051FC94E73D460A49484602F075FB2946DD
:1016100002F048FC214602F06FFB05464FF07F5177
:10162000E9E70000ABAAAA3DD7B3DDBFD7B35D3F62
:101630000000C0BFD7B3DD3F10B590F821100022E5
:10164000022905D00421816380F82020012010BDEB
:1016500001680B6823F00E030B6001680B6823F030
:1016600001030B6090F84030C46B012101FA03F3D1
:10167000636080F8211080F82020104610BD000023
:101680002DE9F05F90F821100024022903D00421F5
:101690008163012485E001680A6822F00E020A6075
:1016A00001680A6822F001020A603F4E3E4FB215FF
:1016B000DFF8F4C0DFF8F090DFF8ECA0DFF8E8B076
:1016C000DFF8E4E00168783F13011502ACF1640C27
:1016D000A9F15009AAF13C0AABF1280BAEF1140EA6
:1016E0004FF48018B14227D9B9420ED0614512D0CB
:1016F00049451DD0514518D0594518D0714501D1E3
:10170000424615E0294EB14201D1012210E0274E98
:101710001436B14201D110220AE0244E2836B142DB
:1017200006D0224A3C32914201D11A4600E02A46B4
:101730001E49091F0A602BE0B94213D0614517D03A
:10174000494522D051451DD059451DD0714501D183
:1017500042461AE0B14202D14FF0807215E0134EBA
:10176000B14201D1012210E0104E1436B14201D134
:1017700010220AE00D4E2836B14206D00B4A3C3208
:10178000914201D11A4600E02A46074980394A6051
:10179000012180F82110002180F82010416B01B157
:1017A00088472046BDE8F09F8000024008040240C0
:1017B0002DE9F05FC16B0A6801680B68046C4FF09B
:1017C000040808FA04F8844D844E854FDFF814C2EB
:1017D000DFF81492DFF814A2DFF814B2DFF814E295
:1017E00018EA020F65D05FEA437862D50A6892066C
:1017F00003D40A6822F004020A60DFF8F0814FF493
:101800008062016808F1140813011402414524D9CB
:10181000A9420DD0B1420FD0B9421AD0614515D0BE
:10182000494515D0514501D1120312E0594501D166
:1018300004220EE0714501D140220AE06D4D1435BD
:10184000A94206D06B4A2832914201D11A4600E0E3
:1018500022466749091F0A6029E0A94213D0B14214
:1018600015D0B94220D061451BD049451BD0514508
:1018700002D14FF4800217E0414502D14FF080625F
:1018800012E0594501D104220EE0714501D14022F8
:101890000AE0584D1435A94206D0564A28329142E2
:1018A00001D11A4600E022464B4908394A60C16A14
:1018B00071E04FF0020808FA04F818EA020F70D03D
:1018C0005FEA83786DD50A68920606D40A6822F02A
:1018D0000A020A60012180F82110DFF810814FF41C
:1018E0000072016808F1140813011402414524D95B
:1018F000A9420DD0B1420FD0B9421AD0614515D0DE
:10190000494515D0514501D1120312E0594501D185
:1019100002220EE0714501D120220AE0354D143536
:10192000A94206D0334A2832914201D11A4600E03A
:1019300022462F49091F0A6029E0A94213D0B1426B
:1019400015D0B94220D061451BD049451BD0514527
:1019500002D14FF4001217E0414502D14FF000725E
:1019600012E0594501D102220EE0714501D1202239
:101970000AE0204D1435A94206D01E4A2832914271
:1019800001D11A4600E02246134908394A60002175
:1019900080F82010816A00291CD0BDE8F05F08475C
:1019A000FFE70825A540154214D01A0712D50A688A
:1019B00022F00E020A6090F84020C36B012101FA68
:1019C00002F25A60816380F82110002180F8201013
:1019D000016BE0E7BDE8F09F080002401C000240F8
:1019E0003000024044000240580002406C000240B7
:1019F000080402401C04024030B560B11A4B026872
:101A000014219A4209D2194B1344B3FBF1F1890016
:101A1000016417490AE0012030BD134B5B421344B7
:101A2000B3FBF1F1890001640F490839C163022158
:101A300080F82110136843F6F0718B43F0E901142C
:101A40002143D0E902452C432143046921434469E1
:101A5000214384692143194311600021416301221C
:101A600042770177084630BD08040240F8FFFDBF09
:101A70000000024070B5044690F8200000250128BF
:101A80000CD0012084F8200094F821600020012E61
:101A900006D084F820000225284670BD022070BDC3
:101AA000022684F82160A0632068066826F00106FB
:101AB00006602046FFF79EFBE06A00282068016868
:101AC00002D041F00E0106E021F00401016020681F
:101AD000016841F00A0101602068016841F00101DC
:101AE0000160D9E770470000044910B50A68024256
:101AF00002D00860FFF7F6FF10BD0000140401409B
:101B00002DE9F84FDFF8C8910024A9F1040B234612
:101B10000F2709F1040AABF1040ED1E00125A5401D
:101B200006EA0502AA4276D1DFF8A8C14E68A6EB04
:101B30000C0866452BD00DDC032E34D005DC36B303
:101B4000012E19D0022E2FD11BE0112E16D0122EED
:101B50002AD119E0B8F5881F19D006DCB8F5803F06
:101B600015D0B8F5801F1FD111E0B8F5001F0ED0B9
:101B7000B8F5041F18D10AE0CB6815E0CB681B1D2F
:101B800012E0CB6808330FE0CB680C330CE08B68B5
:101B90002BB1012B4FF0080303D0456104E004236F
:101BA00002E0056100E00023FF2A01D8064601E0BB
:101BB00000F104064FEA840501D9A5F12005D6F805
:101BC000008007FA05FC28EA0C0803FA05F548EA44
:101BD0000508C6F800804D68ED0070D53E4DAE6931
:101BE00046F00106AE61AD6924F0030605F001057B
:101BF00000953A4D06EB050CDCF80850A607360FA9
:101C000007FA06F825EA0805DFF8D480404503D135
:101C10004FF0000825E052E0DFF8C880404502D1CF
:101C20004FF001081DE0DFF8C080404502D14FF0C1
:101C3000020816E0DFF8B480404502D14FF00308F7
:101C40000FE0DFF8AC80404502D14FF0040808E017
:101C5000DFF8A080404502D14FF0050801E04FF0C9
:101C6000060808FA06F848EA0508CCF808804D6826
:101C7000D9F80060ED024D4601D5164300E09643C9
:101C80002E604D68DAF80060AD02554601D5164366
:101C900000E096432E604D68DBF80060AD035D46C2
:101CA00001D5164300E096432E604D68DEF80060D3
:101CB000ED03754601D5164300E096432E60641C83
:101CC0000A681646E2407FF429AFBDE8F88F0000AD
:101CD0000804014000001110001002400000014003
:101CE00000080140000C01400010014000140140B8
:101CF00000180140001C0140C26821EA02030A40AA
:101D000043EA0241016170470AB101617047090469
:101D1000FBE70000014880687047000018000020C1
:101D200002488168027811448160704718000020E1
:101D3000074810B5016841F010010160032000F070
:101D400075F80F2000F006F800F024F8002010BD10
:101D50000020024070B50D4D04464FF47A7128788A
:101D6000B1FBF0F00A490968B1FBF0F000F0DCFAD1
:101D700048B9102C07D200222146501E00F036F838
:101D800000206C6070BD012070BD000018000020B4
:101D9000240000200C4808B5816941F001018161EF
:101DA000816901F001010091C16941F08051C16177
:101DB000C06900F0805000900448416821F0E06163
:101DC00041F00071416008BD001002400000014078
:101DD000002809DB00F01F0201219140400980002A
:101DE00000F1E020C0F8001170470000F0B40E4B85
:101DF0001B680C46C3F30223C3F10705042D00D969
:101E00000425191D072901D2002300E0DB1E01264D
:101E100006FA05F1491E214099409E40761E164063
:101E20003143F0BC01F097BC0CED00E0064900F036
:101E3000070208684FF6FF03184040EA0220034AF1
:101E400010430860704700000CED00E00000FA0548
:101E50002DE9F0470F46050061D0434E306800F091
:101E60000700B84209D2306820F0070038433060DC
:101E7000306800F00700B84251D128683B4C810718
:101E800012D5400703D5606840F4E06060602878B0
:101E9000000703D5606840F4605060606068A9681E
:101EA00020F0F000084360602878C00728D06868F8
:101EB000012810D02168022810D0890700292EDAC5
:101EC000616821F0030101436160FFF723FF804651
:101ED00041F288390DE021688903EFE78901EDE7D8
:101EE000FFF718FFA0EB0801494502D90320BDE820
:101EF000F0876068696800F00C00B0EB810FEFD1EB
:101F0000306800F00700B8420BD9306820F00700B5
:101F100038433060306800F00700B84201D001203B
:101F2000E5E72878400705D56068E96820F4E060B7
:101F3000084360602878000706D56068296920F4A6
:101F4000605040EAC100606000F038F86168084AFB
:101F5000C1F30311515CC840064908600648006897
:101F6000FFF7F8FE0020C2E7002002400010024008
:101F70008A480008240000201C000020044805496D
:101F800000684968044AC1F30221515CC8407047A7
:101F900024000020001002409A4800080448054927
:101FA00000684968044AC1F3C221515CC8407047C7
:101FB00024000020001002409A4800080E4A516890
:101FC0000E4801F00C03042B11D0082B0FD10C4844
:101FD000C1F38343C903C05C0AD55168084AC1F301
:101FE0004041921E515C054A5043B0FBF1F07047EE
:101FF00004494843704700000010024000127A0074
:102000007A48000800093D002DE9F84F040070D01F
:102010002078C04DC00749D06868C0F3810001280E
:1020200007D06868C0F38100022809D16868C0033E
:1020300006D52868800339D560680028E7D035E0E8
:102040006068B0F5803F0BD010B1B0F5A02F11D073
:10205000286820F480302860286820F4802002E07E
:10206000286840F480302860606890B1FFF752FE25
:1020700006460AE0286840F480202860F0E700BFA8
:10208000FFF748FE801B642873D828688003F7D5C3
:102090000CE0FFF73FFE064605E000BFFFF73AFE03
:1020A000801B6428F0D828688003F7D420789A4EE3
:1020B00080074FF001094FF0000839D5686810F02B
:1020C0000C0F07D06868C0F38100022809D1686846
:1020D000C00306D42868800714D52069012808D1D8
:1020E00010E02069B0B1C6F80090FFF713FE074674
:1020F00005E00AE1FFF70EFEC01B0228C4D82868DD
:102100008007F7D52868616920F0F80040EAC1002F
:1021100028600DE0C6F80080FFF7FCFD074604E0EC
:10212000FFF7F8FDC01B022823D828688007F7D4E2
:10213000207800072CD57948A169D9B1C0F8009062
:10214000FFF7E8FD074604E0FFF7E4FDC01B0228A7
:102150000FD8686A8007F7D571484FF4FA510068C4
:10216000B0FBF1F0009000BF0098411E0091FAD240
:102170000EE080E0C0F80080FFF7CCFD074604E0E9
:10218000FFF7C8FDC01B022875D8686A8007F7D41E
:102190002078400760D5E8690027C00008D4E869C6
:1021A00040F08050E861E869012700F0805000901D
:1021B0005C480168C90513D40168834641F4807105
:1021C0000160FFF7A7FD824606E000BFFFF7A2FD12
:1021D000A0EB0A0064284ED8DBF80000C005F5D556
:1021E000E06801280AD008B1052813D0286A20F039
:1021F00001002862286A20F0040002E0286A40F00A
:1022000001002862E06841F2883B98B1FFF782FD47
:1022100082460BE0286A40F004002862EEE700BF27
:10222000FFF778FDA0EB0A0159455AD8286A8007C4
:10223000F6D50CE0FFF76EFD824605E0FFF76AFD7C
:10224000A0EB0A0159454CD8286A8007F6D41FB183
:10225000E86920F08050E861E06988B36968C1F3FB
:102260008101022944D00228C6F8608004D0FFF71B
:1022700051FD044638E034E0FFF74CFD074604E02A
:10228000FFF748FDC01B02282BD828688001F7D42F
:10229000206AB0F5803F05D16868A16820F400305D
:1022A00008436860D4E908010843696821F474119F
:1022B00008436860C6F86090FFF72CFD044606E00E
:1022C00025E000BFFFF726FD001B022809D828687B
:1022D0008001F7D51BE000BFFFF71CFD001B0228A3
:1022E00002D90320BDE8F88F28688001F4D40EE0FD
:1022F0000128F7D06868226A00F48031914204D145
:10230000616A00F47010884201D00120EAE70020E1
:10231000E8E7000000100240000042428004424210
:10232000240000200070004010B5401EB0F1807FF6
:1023300001D3012010BD4FF0E02460610F21601730
:1023400001F009FA0020A06107202061002010BDE3
:102350007047704710B590F83C20012A22D0012226
:1023600080F83C20CA688C6822F4407222434C6892
:1023700022F4806222430C6822F4006222430C693A
:1023800022F4805222434C6922F400522243C9694C
:10239000002322F480420A4301684A6480F83C30FA
:1023A000002010BD022010BD70B590F83C20012A1D
:1023B0002CD0012480F83C40022280F83D200368A4
:1023C0005A689D6822F070060A6832435A60104BC2
:1023D00002689A420ED00F4B9A420BD0B2F1804F56
:1023E00008D00D4B9A4205D00C4B9A4202D00C4BB0
:1023F0009A4204D1496825F080031943916080F81E
:102400003D40002180F83C10084670BD022070BDA0
:10241000002C01400034014000040040000800404E
:10242000000C004010B50446022249B104290ED028
:10243000082913D094F84500012816D0012010BDBA
:1024400094F842000128F9D184F842200FE094F872
:1024500043000128F2D184F8432008E094F84400B6
:102460000128EBD184F8442001E084F845200422BF
:10247000206800F00CFF2068416C41F40041416489
:102480000E49206888420ED00D4988420BD0B0F129
:10249000804F08D00B49884205D00B49884202D0B2
:1024A0000A49884204D1816801F00701062903D056
:1024B000016841F001010160002010BD002C0140C5
:1024C000003401400004004000080040000C0040BF
:1024D00010B5040003D094F83D0010B107E00120CE
:1024E00010BD002084F83C00204600F01FF80220B8
:1024F00084F83D00211D206800F06EFE012084F864
:10250000460084F83E0084F83F0084F8400084F8D8
:10251000410084F8420084F8430084F8440084F8C1
:10252000450084F83D00002010BD000000B585B0D6
:1025300000210091019102910391204A01682048F5
:10254000914226D1816941F400618161816901F480
:1025500000610491816941F04001816180696946AF
:1025600000F0400004904FF4004000901548FFF741
:10257000C7FA1548416821F0C00141F0E06141F01F
:10258000C0014160002211461820FFF72FFC1820DF
:1025900010E00E4A91420FD1C16941F01001C161B2
:1025A000C069002200F01000049011463620FFF7A9
:1025B0001DFC3620FFF70CFC05B000BD002C0140CF
:1025C00000100240001801400000014000100040CF
:1025D00070B5044690F83C000025012817D001266C
:1025E00084F83C60022084F83D002068826822F074
:1025F000770222F47F4282600868502838D00DDCD0
:1026000020284FD005DC90B3102811D14AE00220D9
:1026100070BD302846D040280AD13BE060282FD03A
:1026200070280DD0B0F5805F03D0B0F5005F12D0F8
:10263000012584F83D60002084F83C00284670BDE8
:10264000CB68D1E90121206800F02EFE2068816866
:1026500041F0770109E0CB68D1E90121206800F061
:1026600023FE2068816841F480418160E1E719E040
:10267000CA684968206800F0EBFE5021206806E037
:10268000CA684968206800F0F4FE6021206800F004
:1026900015FECEE7CA684968206800F0D9FE4021DF
:1026A0002068F4E7226801461046F0E770472DE9FC
:1026B000F04104460068C66805694FF00007A907A5
:1026C00013D5B10711D5F91E0161012020772068CB
:1026D00080698007204602D0FFF7E8FF04E000F0A1
:1026E000B1F8204600F043F92777680716D5700740
:1026F00014D521686FF0040008610220207720685B
:10270000806910F4407F204602D0FFF7CFFF04E03D
:1027100000F098F8204600F02AF92777280715D509
:10272000300713D521686FF0080008610420207776
:102730002068C0698007204602D0FFF7B7FF04E099
:1027400000F080F8204600F012F92777E80616D549
:10275000F00614D521686FF010000861082020777A
:102760002068C06910F4407F204602D0FFF79EFF2A
:1027700004E000F067F8204600F0F9F82777E80752
:1027800008D0F00706D021686FF0010008612046EC
:1027900000F048F9280608D5300606D521686FF004
:1027A000800008612046FFF7D3FD680608D5700653
:1027B00006D521686FF040000861204600F033F92B
:1027C000A8060AD5B00608D521686FF02000086178
:1027D0002046BDE8F041FFF7BCBDBDE8F081000038
:1027E00000B585B00021009101910291039100682C
:1027F000104988421BD11048816941F04001816134
:102800008069694600F0400004904FF47C500090CD
:102810000220019003900948FFF772F908484168C7
:1028200021F0C00141F0E06141F0C001416005B01C
:1028300000BD0000002C01400010024000180140C3
:1028400000000140704770B5044690F83C00002637
:102850000D4601280FD0012084F83C006AB1042AFB
:102860001DD0082A2FD00C2A3FD00126002084F842
:102870003C00304670BD022070BD206800F026FD8F
:102880002068816941F0080181612068816921F037
:1028900004018161206881692A69114311E020687F
:1028A00000F044FD2068816941F400618161206885
:1028B000816921F480618161206881692A6941EA26
:1028C00002218161D2E7206800F066FD2068C169BD
:1028D00041F00801C1612068C16921F00401C161B2
:1028E0002068C1692A69114311E0206800F088FD61
:1028F0002068C16941F40061C1612068C16921F4A7
:102900008061C1612068C1692A6941EA0221C1610F
:10291000ACE710B5040003D094F83D0010B107E017
:10292000012010BD002084F83C00204600F01EF875
:10293000022084F83D00211D206800F04DFC01209C
:1029400084F8460084F83E0084F83F0084F8400094
:1029500084F8410084F8420084F8430084F844007D
:1029600084F8450084F83D00002010BD7047704792
:1029700010B50446022249B104290ED0082913D00B
:1029800094F84100012816D0012010BD94F83E00B3
:102990000128F9D184F83E200FE094F83F00012887
:1029A000F2D184F83F2008E094F840000128EBD1F0
:1029B00084F8402001E084F841200122206800F0E2
:1029C00059FC13492068134A884201D0904203D130
:1029D000436C43F400434364206888420DD0904226
:1029E0000BD0B0F1804F08D00B49884205D00B497D
:1029F000884202D00A49884204D1816801F0070167
:102A0000062903D0016841F001010160002010BDDA
:102A1000002C014000340140000400400008004048
:102A2000000C00407047704770477047F8B5016868
:102A300004460868CA684B6910F00F0F4FF0000594
:102A40005AD003F0010602F49077374365D0C107EE
:102A500005D0D10503D5616C41F0010161644107E6
:102A600005D5D90703D0616C41F00201616481078B
:102A700005D5D90703D0616C41F0040161640107F9
:102A800007D502F02001314303D0616C41F0080109
:102A90006164616C00293BD0800604D5900602D5A4
:102AA000204600F080FD20684069616CC0F3801012
:102AB00001F00801014320462BD000F03FFD2068C3
:102AC0004069400621D52068143050E8001F21F0ED
:102AD000400140E80012002AF5D1E06BA8B16D4931
:102AE0004163E06BFEF7CCFD002811D0E06B416B39
:102AF00001B0BDE8F040084783060ED593060CD51B
:102B00002046BDE8F84000F04EBD2046FFF78DFF9F
:102B1000F8BDFFF78AFF6564F8BD266B2023012E00
:102B20007CD1C6067AD5D60678D508684868009064
:102B300048694FF00206400640D5E16B08684068DE
:102B40000004000CE8D0A28D8242E5D9E0858869B6
:102B500020282DD020680C3050E8001F21F480710F
:102B600040E80012002AF5D12168143151E8000F25
:102B700020F0010041E80002002AF5D1206814305D
:102B800050E8001F21F0400140E80012002AF5D172
:102B900084F84230256320680C3050E8001F21F093
:102BA000100140E80012002AF5D1E06BFEF744FD69
:102BB0006663A08DE18D401A81B22AE0A08DE18D7F
:102BC000401A81B2E08D0028A6D00029A4D0226846
:102BD0000C3252E8000F20F4907042E80007002FFA
:102BE000F5D12068143050E8002F22F0010240E8AF
:102BF0000027002FF5D184F84230256320680C307F
:102C000050E8002F22F0100240E80023002BF5D1FD
:102C100066632046FFF708FFF8BDFFE705062BD5E2
:102C2000150629D594F841002128F5D1A068B0F502
:102C3000805F01D12069B0B1206A411C2162216806
:102C400000784860E08C401E0004000CE084E3D172
:102C50002068C16821F08001C1602068C16841F02E
:102C60004001C160D8E7206A0088C0F308004860CE
:102C7000206A801C2062E5E74006CDD55006CBD502
:102C8000CA68204622F04002CA6084F8413000F051
:102C9000DFF8C1E79734000870B5040004D094F859
:102CA0004100002510B106E0012070BD84F84050BD
:102CB000204600F023F8242084F841002068C168F1
:102CC00021F40051C160204600F0CEFC206801696B
:102CD00021F4904101612068416921F02A0141619C
:102CE0002068C16841F40051C1606564202084F807
:102CF000410084F842006563002070BDF0B585B0E6
:102D000000240646009401940294039400682C4920
:102D1000884253D12B48816941F4804181618169A6
:102D200001F480410491816941F00401816180696D
:102D3000254D00F0040004904FF400700090022034
:102D400001900320039069462846FEF7D9FE281516
:102D5000CDE90004694628460294FEF7D1FE1C4DD9
:102D60001A48802701C5102091C5194845F8104917
:102D70006C61AC61EC61FEF73FFE08B1FEF75CFAF6
:102D8000B5636E62124D114844351430C5E9000434
:102D9000C5E902472C616C61AC612846EC61FEF725
:102DA0002BFE08B1FEF748FAF563002211462520F4
:102DB0006E62FFF71BF82520FFF70AF805B0F0BD9B
:102DC0000038014000100240000801404400024069
:102DD000800100207047000070B5044690F8410063
:102DE000202801D0022070BD49B342B32162A284E1
:102DF000E28400206064212384F84130A56B114BEC
:102E0000AB62A56B104BEB62A56B104B2B63A36BF6
:102E10005863256813462A1DA06BFEF72BFE216818
:102E20006FF0400008602068143050E8001F41F047
:102E3000800140E80012002AF5D1002070BD012079
:102E400070BD0000F134000833350008A7340008D5
:102E500070477047FEE7000070B50546094C0A4E02
:102E60000AE02146884202DD01F01CF803E0B0428E
:102E700002D300F0AFFD28602868A042F1DCB04228
:102E8000EFD270BDDB0FC940000080800D4808B54F
:102E9000416941F0010141614069002200F00100F7
:102EA000009011460E20FEF7A1FF0E20FEF790FFC6
:102EB000002211460F20FEF799FFBDE808400F20C1
:102EC000FEF786BF001002402DE9F04786B00025CE
:102ED0003D480095019502950395816941F04001B7
:102EE0008161816901F040010491816941F0100123
:102EF0008161816901F010010491816941F004014F
:102F00008161816901F004010491816941F0080146
:102F100081618069DFF8B49000F00800049001221C
:102F200020214846FEF7F0FEDFF8A4A00122202170
:102F30005046FEF7E9FE274F1C20CDE9000701248B
:102F4000694602944846FEF7DBFD4FF0200801AACF
:102F50000226CDF8008082E8700069464846FEF7F8
:102F6000CFFDCDE9004769461B480296FEF7C8FD34
:102F700001AACDF8008082E8700069465046FEF74D
:102F8000BFFD002204210620FEF730FF0620FEF7D9
:102F90001FFF002204210820FEF728FF0820FEF76B
:102FA00017FF002204210920FEF720FF0920FEF769
:102FB0000FFF002204210A20FEF718FF0A20FEF767
:102FC00007FF06B0BDE8F08700100240001801407E
:102FD000000C0140000031100008014010B596B00F
:102FE00000240F9410941194129413941C21684699
:102FF0001494FDF767F9202107A8FDF763F932481B
:103000003049C0E900142021816040F20771C0E915
:10301000031444618461FFF75BFA08B1FEF70CF911
:103020004FF480500F900FA92748FFF7D1FA08B14D
:10303000FEF702F92448FFF76CFC08B1FEF7FCF834
:103040007020CDE9130413A91F48FFF7ADF908B1AB
:10305000FEF7F2F86020CDE900044FF48070CDE96E
:103060000440029403940022694617480694FFF72F
:10307000EAFB08B1FEF7E0F8042269461248FFF7C0
:10308000E2FB08B1FEF7D8F8082269460E48FFF7C0
:10309000DAFB08B1FEF7D0F8079464200894CDE974
:1030A00009404FF40050CDE90B4007A906480E94A3
:1030B000FFF750F908B1FEF7BFF80348FFF790FBA0
:1030C00016B010BD002C0140280000201CB50024C3
:1030D0000F4800940D49019401604721C0E9011493
:1030E00042F20F71C16080218161FFF7F1F908B1EF
:1030F000FEF7A2F82020CDE9000469460448FFF756
:1031000053F9002801D0FEF797F81CBD00100040CD
:10311000700000200C4810B50A4901604FF4E131FD
:103120004160002181600C22C160C0E9041281610C
:10313000C161FFF7B1FD002803D0BDE81040FEF7E4
:103140007BB810BD0038014038010020FEE7FEE7E3
:1031500070477047FEF7E4BD30B58FB02821684650
:10316000FDF7B0F814210AA8FDF7ACF80121080416
:10317000CDE900100024029402250491CDE9075006
:103180004FF4E01009906846FEF73EFF08B172B6B2
:10319000FEE70F20CDE90A054FF48060CDE90C4031
:1031A00002210AA80E94FEF753FE002801D072B641
:1031B000FEE70FB030BD70470148FFF778BA000056
:1031C000280000200249012008700248FFF76FBA6A
:1031D0000000002070000020F0B50268204C214D56
:1031E000214E224F224B4FF0804CA04209D09842F2
:1031F00007D0604505D0A84203D0B04201D0B84204
:1032000004D122F0700E4A6842EA0E02A04209D0B0
:10321000984207D0604505D0A84203D0B04201D003
:10322000B84203D122F44075CA682A434D6922F09E
:1032300080022A4302608A68C2620A688262A042EF
:1032400001D0984201D109690163012141610169FD
:10325000C90703D0016921F001010161F0BD00003F
:10326000002C01400004004000080040000C004019
:103270000034014010B501F01F030121046A994098
:103280008C430462016A9A401143016210BD10B57B
:1032900001F00F030421046A99408C430462016A1F
:1032A0009A401143016210BD10B5846842EA0322BE
:1032B00024F47F440A432243826010BD826822F0D6
:1032C00070020A4342F0070181607047F0B5036A5B
:1032D000026A22F00102026242688469124E24F0FE
:1032E00073050C682C4323F002058B682B430D4DAE
:1032F000A84201D0B04205D123F00807CB683B4378
:1033000023F00403A84201D0B04205D14D6922F454
:10331000407215438A692A43426084614968416367
:103320000362F0BD002C014000340140F0B5026A98
:10333000036A23F010030362436884690D6824F470
:10334000E64444EA05248D6822F0200242EA051290
:103350000F4D104EA84201D0B04206D1CF6822F0E6
:10336000800242EA071222F04002A84201D0B04295
:1033700007D14D6923F4406343EA85038D6943EA2D
:10338000850343608461496881630262F0BD000087
:10339000002C014000340140F0B5026A036A23F4B6
:1033A000807303624368C46922F4007224F07305D9
:1033B0000C68124E2C438D6842EA05220E4DA8423D
:1033C00001D0B04206D1CF6822F4006242EA07225F
:1033D00022F48062A84201D0B04207D14D6923F4A3
:1033E000405343EA05138D6943EA05134360C46102
:1033F0004968C1630262F0BD002C01400034014005
:1034000030B5046A026A22F4805202624268C369DB
:103410000D6823F4E64343EA05238D6824F4005441
:1034200044EA0534084DA84202D0084DA84204D110
:103430004D6922F4804242EA85124260C3614968C4
:103440000164046230BD0000002C014000340140E2
:1034500010B5036A046A24F001040462846924F04C
:10346000F00444EA021423F00A020A43846102626F
:1034700010BD10B5036A046A24F010040462846964
:1034800023F0A00324F4704444EA023243EA011119
:103490008261016210BD10B5406A0021C185C184FE
:1034A000FFF7C3FA10BD70B5446A2068406994F80C
:1034B0004110C0F3C0100025212904D118B1E584C2
:1034C000204600F062F82068406994F84210C0F38A
:1034D0008010222904D118B1E585204600F02EF88D
:1034E000606C40F0100060642046FFF79EFA70BDEB
:1034F00010B50146406A09680968890616D400219A
:10350000C1840168143151E8002F22F0800241E8A3
:103510000023002BF5D101680C3151E8002F42F057
:10352000400241E80023002BF5D110BDFFF790FCCD
:1035300010BD10B5406AFFF78CFC10BD01680C315E
:1035400051E8002F22F4907241E80023002BF5D1BE
:103550000168143151E8002F22F0010241E80023F4
:10356000002BF5D1016B012909D101680C3151E81B
:10357000002F22F0100241E80023002BF5D120217A
:1035800080F8421000210163704701680C3151E856
:10359000002F22F0C00241E80023002BF5D12021AA
:1035A00080F84110704708B590F84210222901D0E8
:1035B000022008BD82684FF480539A4201D101690C
:1035C00021B1816A9A421BD04AB10AE00268816A3D
:1035D0005268C2F308020A80816A891C08E0026905
:1035E00072B10268526802F07F020A70816A491C57
:1035F0008162C18D491E0904090CC18503D01BE0FD
:1036000002685268F1E70168CA6822F02002CA60C5
:103610000168CA6822F48072CA6001684A6922F0AF
:1036200001024A61202180F8421000214163026BAF
:10363000012A03D0FFF7CEFB002008BD016301681B
:103640000C3151E8002F22F0100241E80023002B3A
:10365000F5D101680A68D20602D50A684968009166
:10366000818DFFF7E1F9E7E770B50446006801696D
:10367000E26821F44051114301612169A0680843C7
:10368000616908432168CA6841F20C639A430243A6
:10369000CA6020684169A26921F440711143416107
:1036A0001E492068884202D1FEF778FC01E0FEF74F
:1036B00065FC00EBC00101EB001260686421800032
:1036C000B2FBF0F3B3FBF1F36FF018067343B2FBF8
:1036D000F0F5B2FBF0F605EB8305322303EB05159D
:1036E000B5FBF1F5B6FBF1F605F0F00505EB0615B7
:1036F000B2FBF0F6B2FBF0F0B0FBF1F06FF01802A5
:10370000504306EB800003EB0010B0FBF1F02168A2
:1037100000F00F002844886070BD000000380140B0
:103720000148FFF783B9000038010020FEE7490097
:1037300050EAC12018BF04204A0D18BF40F0010014
:1037400040F2FF72B2EB515F08BF40F00200012867
:1037500008BF052070470907090E002804DB00F1A7
:10376000E02080F80014704700F00F0000F1E02026
:1037700080F8141D7047000070B5214900F0BCFAB4
:103780004FF07A5100F026F9044600F04DFA14F19A
:10379000FF4F00D3401E00F083FA214600F078FB73
:1037A000092100F028FC054600F05AFA84B2B4F56D
:1037B000007F06D300244FF08841284600F072FBBA
:1037C0000546204600F084FA294600F061FB0546D4
:1037D0000C4850F8246000EB84004168284600F053
:1037E0008BFA044629464FF07E5000F05BFB3146D1
:1037F00000F082FA2146BDE8704000F0EBB800000E
:1038000083F9223E7440000870B51F4900F074FA35
:10381000044600F009FA14F1FF4F00D3401E00F0F7
:103820003FFA214600F034FB092100F0E4FB054695
:1038300000F016FA84B2B4F5007F06D300244FF0EE
:103840008841284600F02EFB0546204600F040FA4D
:10385000294600F01DFB05460C4850F8246000EB9B
:1038600084004168284600F047FA044629464FF094
:103870007E5000F017FB314600F03EFA2146BDE8CD
:10388000704000F0A7B8000083F9223E74400008A1
:10389000FEF74EFAFFF760FCFFF716FBFFF7F6FAAC
:1038A000FFF714FCFFF736FCFFF798FB2048016890
:1038B0000A6842F001020A600068C16841F0010133
:1038C000C16000211B48FFF753F804211948FFF796
:1038D0004FF808211748FFF74BF800211548FEF76D
:1038E000A1FD04211348FEF79DFD08211148FEF7B4
:1038F00099FD10484FF4FA7102685163026849005B
:103900009163006840F2DC51C1630B4C0B4E0C4FCD
:10391000002520780128FCD12570FDF7BBFC202173
:103920003046FEF7E9F920213846FEF7E5F9F0E7E1
:10393000700000202800002000000020000C014042
:103940000018014010B500290AD00878002807D0D7
:1039500005487844FDF73EF8002801D0002010BD4E
:103960000248784410BD000006100000FE0F000061
:103970000808A0F500114FEA3101704743004FEAF3
:10398000D30C4FEA3C0C43401FBF40070CF1605181
:1039900013F0FE4F70471CF0006F03D100200CF0B5
:1039A000004170470CF0004343EA507010B540EA04
:1039B000CC0000F022FA00BF000000924FEA0001A4
:1039C000FFF7D6BF4FF000414FF00000A1F50021F6
:1039D0007047000090EA010F48BF81F0004100F1FC
:1039E0006882421A3CBF801A89184FEAD0524FF0C1
:1039F0007F4C1CEA410FA2EBD15318BF9CEA026F27
:103A000000F03B804FF0004C4CEA00204CEA0121D2
:103A100021FA03FC10EB0C0C1ED202F1FF325FEA1C
:103A20001C2040EBC25038BF70471CF07F0F4FEA9C
:103A3000400C18BFBCF17F4F38BF7047C3F1200363
:103A4000994008BF20F00100BCF17F4F38BF70479C
:103A5000A0F1C04000F017BA4FEA3C00000A40EB6A
:103A6000C25028BF1CF0FF0F4FEA400CE6D018BF31
:103A7000BCF17F4F38BF7047EAE79CEA026F05D080
:103A800010EA5C0F08BF00F00040704710B500F06E
:103A9000B4F900BF64FBBE3E014800F07ABA00BF33
:103AA0000000C07F4FF47F0C1CEAD0121EBF1CEA3E
:103AB000D11392EA0C0F93EA0C0F00F0858090EA84
:103AC000010F48BF42F4807240F4000C41F4000042
:103AD0002CF07F4120F07F4000B58142A2EB030231
:103AE0000FF2081CACEB504EC0F100009EF800E055
:103AF0004FEA4E0E00FB0EFC38BF49004FEA2C1C6B
:103B000002F5FA020CFB0EF34FEACE1E4FEA112C1F
:103B10004FEAC1210EEB635E42EB22420EFB0CFC2E
:103B20004FEA1C5300FB03114FEA112C4FEA0131FD
:103B30000EFB0CFC4FEADC4C00FB0C11C14228BF11
:103B400009184CEB03335DF804EB10EB410143EB38
:103B5000C250B2F57C0F38BF704729D512F0F00F74
:103B60001CBF00F1C04000F000407047008182831C
:103B70008485868788898B8C8D8E8F91929395967C
:103B800097999A9C9D9FA0A2A3A5A7A8AAACAEB006
:103B9000B2B3B5B7B9BCBEC0C2C5C7C9CCCED1D40B
:103BA000D7D9DCDFE2E6E9ECF0F3F7FAFE0000003B
:103BB0004FEA400C0CF1807CBCF17E4F28BF70476F
:103BC000B0F1C04000F05FB990EA010F0CEAD113E8
:103BD00048BF42F48072624538BF634507D213F490
:103BE0007F0F16D080EA010000F00040704710B54A
:103BF00000F003F9097EFC3E00F005B880EA010000
:103C000000F00040704780EA010000F0004000F042
:103C10003AB912F47F0F04BF0248704780EA0100EE
:103C200000F031B90000C07F41000B0ED3F19E02BD
:103C300008D950F400034FEA032323FA02F048BFE7
:103C40004042704710B500F0D8F800BF4992248078
:103C5000002070476FF0004282EA200070470000A9
:103C6000C10DD1F19E0206DB4FEA002343F0004371
:103C700023FA02F07047004207D54FEA4001B1F144
:103C8000FE4F02D24FF00000704710B500F0B5F8BB
:103C900049922480002070476FEA2000704700009E
:103CA00010F0004148BF4042B0FA80F310FA03F22E
:103CB000C3F19D030BD051EAC35101EB122053060F
:103CC00038BF704700F1010008BF20F001007047C5
:103CD000B0FA80F310FA03F2C3F19D030AD0D905BC
:103CE00001EB1220530638BF704700F1010008BFF6
:103CF00020F00100704700004FF47F0C1CEAD01246
:103D00001EBF1CEAD11392EA0C0F93EA0C0F00F0CD
:103D1000478090EA010F48BF42F480724FF0004C98
:103D20004CEA00204CEA012102EB0302A0FB011344
:103D3000A2F50002002918BF43F001035B0028BF71
:103D40004FEA330342EB22425FEA132C4CEBC250A2
:103D50002EBFBCEB436FB2F57C0F70474FEA036C8C
:103D6000BCF1004F08BF20F00100B2F57C0F38BF56
:103D700070470BD582F0FF0212F5803FC8BF704735
:103D800000F1C040D8BF00F00040704700F5000CC3
:103D90005FEA4C0C48BF7047B0F1C04000F073B808
:103DA00090EA010F0CEAD11348BF42F480726245D9
:103DB00038BF634504D280EA010000F0004070473C
:103DC00010B500F01AF800BF8900013E00F007B8F6
:103DD00000F009B85FEA410C5FEA1C6C08D080EA89
:103DE000010000F050B85FEA400C5FEA1C6CF6D1AD
:103DF0004FF00040A0F5800070470EF1020E2EF04B
:103E0000030E5EF8044B244204D44FEA4102B2F19F
:103E10007F4F11D84FEA4003B3F17F4F0CD80ED13A
:103E20004FEAD07CB2F17F4F0CEB4C0C0CF1020C42
:103E300008BF4CEBD17C04E04FF0080C01E04FEAE6
:103E4000D17C0CEB4C0324FA03F404F00704B4F126
:103E5000040C06D20EEB840CBDE810404CF0010CB3
:103E60006047DFE80CF0070802024FF00040A0F5C1
:103E7000800010BD0846420018BFD2F1807288BF92
:103E800000F0004010BDFF2141EAD050C00570474E
:103E900080F0004090EA010F7FF5A3AD81F0004172
:103EA00000F007B890EA010F48BF81F000413FF5EC
:103EB00098AD421A04D882F00042A0EB02001144EF
:103EC0004FEAD0524FF07F4C1CEA410FA2EBD15386
:103ED00018BF9CEA026F4AD04FF0004C4CEA002019
:103EE0004CEA012121FA03FCB0EB0C0C0FD412F0C8
:103EF000FE0F36D05FEA4C001DD5001240EBC250D9
:103F000038BF70471CF03F0F18BF70470BE0A2F19D
:103F100001025FEA1C2040EBC25038BF70471CF022
:103F20007F0F18BF7047C3F12003994014BF401E94
:103F300020F00100704780084FEA122308BF704745
:103F4000B0FA80FCA2EB0C02CCF1280C60FA0CF069
:103F500093EA122F04BF00EBC25070474FEAC370C0
:103F60007047130A5FEADC1008BF7047F6E79CEA67
:103F7000026F04D010EA5C0F08BF0020704710B534
:103F8000FFF73BFF40DFF63E81F000407047FCF753
:103F90009ABA0CF00F03092B08BF082000F05180DB
:103FA0000A2B0BD0082B18BF704708BF1CF0400F1E
:103FB0000AD04FF000004FF0000170471CF0400F96
:103FC00018BF4FF0004070471CF0100F08D020F0D1
:103FD000704300F07F4242EAD3014FEA43707047DA
:103FE00000F0604021F07F4242EA000201F07F4091
:103FF00040EA727070474FF0FF0212EAD0521CBFC5
:1040000092F0FF038B42C2BFD14200EBC150704718
:10401000002A0AD0002B0BD0002900F00040A4BFDA
:1040200040F0FE4040F40000704700F00040704750
:1040300043024FF00B0C18BF4CF0806C7FF42CAD9A
:1040400070471CF4801F11D01CF4E02F03D06FEADE
:10405000CC31490070474FF04050EFF3008222F01E
:10406000704242EA000282F3008870474FF000007D
:104070007047000000000000920E493CB10AC93CA4
:104080002BC3163D2EFB483D752B7B3D04A9963D69
:1040900080B6AF3D36BDC83D2FBCE13D73B2FA3DA1
:1040A00087CF093E8340163EB5AB223EA2102F3E7D
:1040B000CF6E3B3EC2C5473E0115543E135C603E89
:1040C0007F9A6C3ECCCF783EC07D823E938E883EF8
:1040D000229A8E3E32A0943E86A09A3EE59AA03E59
:1040E000128FA63ED47CAC3EEF63B23E2A44B83E6B
:1040F000491DBE3E15EFC33E53B9C93ECA7BCF3EF4
:104100004136D53E80E8DA3E4F92E03E7533E63EDA
:10411000BBCBEB3EEA5AF13ECBE0F63E275DFC3EE0
:10412000E4E7003F3D9C033F824B063F9BF5083F81
:104130006B9A0B3FDA390E3FCDD3103F2A68133FFD
:10414000D9F6153FC07F183FC6021B3FD17F1D3FE8
:10415000CBF61F3F9967223F25D2243F5636273F93
:104160001594293F4AEB2B3FDE3B2E3FBB85303F6A
:10417000C9C8323FF304353F233A373F4268393FDD
:104180003B8F3B3FF9AE3D3F67C73F3F70D8413F54
:1041900001E2433F03E4453F65DE473F12D1493F1B
:1041A000F8BB4B3F029F4D3F207A4F3F3D4D513F63
:1041B0004918533F31DB543FE595563F5348583F2C
:1041C0006AF2593F1A945B3F532D5D3F05BE5E3F37
:1041D0002146603F97C5613F5A3C633F59AA643FFF
:1041E000880F663FD86B673F3CBF683FA7096A3FAF
:1041F0000C4B6B3F5E836C3F93B26D3F9ED86E3F1E
:1042000073F56F3F0809713F5213723F4714733FB4
:10421000DD0B743F0BFA743FC6DE753F07BA763F7D
:10422000C58B773FF853783F9812793F9DC7793F08
:1042300002737A3FBE147B3FCDAC7B3F283B7C3F73
:10424000C9BF7C3FAC3A7D3FCCAB7D3F23137E3F63
:10425000B0707E3F6DC47E3F580E7F3F6D4E7F3FF6
:10426000AB847F3F0FB17F3F97D37F3F43EC7F3FCE
:1042700011FB7F3F0000803F11FB7F3F43EC7F3FFE
:1042800097D37F3F0FB17F3FAB847F3F6D4E7F3F22
:10429000580E7F3F6DC47E3FB0707E3F23137E3F3C
:1042A000CCAB7D3FAC3A7D3FC9BF7C3F283B7C3FD8
:1042B000CDAC7B3FBE147B3F02737A3F9DC7793FF5
:1042C0009812793FF853783FC58B773F07BA763F0E
:1042D000C6DE753F0BFA743FDD0B743F4714733F26
:1042E0005213723F0809713F73F56F3F9ED86E3FBE
:1042F00093B26D3F5E836C3F0C4B6B3FA7096A3FE7
:104300003CBF683FD86B673F880F663F59AA643F40
:104310005A3C633F97C5613F2146603F05BE5E3F03
:10432000532D5D3F1A945B3F6AF2593F5348583F03
:10433000E595563F31DB543F4918533F3D4D513FC2
:10434000207A4F3F029F4D3FF8BB4B3F12D1493F70
:1043500065DE473F03E4453F01E2433F70D8413FFC
:1043600067C73F3FF9AE3D3F3B8F3B3F4268393F18
:10437000233A373FF304353FC9C8323FBB85303F4E
:10438000DE3B2E3F4AEB2B3F1594293F5636273F05
:1043900025D2243F9967223FCBF61F3FD17F1D3F97
:1043A000C6021B3FC07F183FD9F6153F2A68133F4E
:1043B000CDD3103FDA390E3F6B9A0B3F9BF5083F88
:1043C000824B063F3D9C033FE4E7003F275DFC3EF8
:1043D000CBE0F63EEA5AF13EBBCBEB3E7533E63E10
:1043E0004F92E03E80E8DA3E4136D53ECA7BCF3E72
:1043F00053B9C93E15EFC33E491DBE3E2A44B83EDF
:10440000EF63B23ED47CAC3E128FA63EE59AA03E4E
:1044100086A09A3E32A0943E229A8E3E938E883E8B
:10442000C07D823ECCCF783E7F9A6C3E135C603E6E
:104430000115543EC2C5473ECF6E3B3EA2102F3EF3
:10444000B5AB223E8340163E87CF093E73B2FA3D9C
:104450002FBCE13D36BDC83D80B6AF3D04A9963DB9
:10446000752B7B3D2EFB483D2BC3163DB10AC93C45
:10447000920E493C00000000920E49BCB10AC9BC32
:104480002BC316BD2EFB48BD752B7BBD04A996BD65
:1044900080B6AFBD36BDC8BD2FBCE1BD73B2FABD9D
:1044A00087CF09BE834016BEB5AB22BEA2102FBE79
:1044B000CF6E3BBEC2C547BE011554BE135C60BE85
:1044C0007F9A6CBECCCF78BEC07D82BE938E88BEF4
:1044D000229A8EBE32A094BE86A09ABEE59AA0BE55
:1044E000128FA6BED47CACBEEF63B2BE2A44B8BE67
:1044F000491DBEBE15EFC3BE53B9C9BECA7BCFBEF0
:104500004136D5BE80E8DABE4F92E0BE7533E6BED6
:10451000BBCBEBBEEA5AF1BECBE0F6BE275DFCBEDC
:10452000E4E700BF3D9C03BF824B06BF9BF508BF7D
:104530006B9A0BBFDA390EBFCDD310BF2A6813BFF9
:10454000D9F615BFC07F18BFC6021BBFD17F1DBFE4
:10455000CBF61FBF996722BF25D224BF563627BF8F
:10456000159429BF4AEB2BBFDE3B2EBFBB8530BF66
:10457000C9C832BFF30435BF233A37BF426839BFD9
:104580003B8F3BBFF9AE3DBF67C73FBF70D841BF50
:1045900001E243BF03E445BF65DE47BF12D149BF17
:1045A000F8BB4BBF029F4DBF207A4FBF3D4D51BF5F
:1045B000491853BF31DB54BFE59556BF534858BF28
:1045C0006AF259BF1A945BBF532D5DBF05BE5EBF33
:1045D000214660BF97C561BF5A3C63BF59AA64BFFB
:1045E000880F66BFD86B67BF3CBF68BFA7096ABFAB
:1045F0000C4B6BBF5E836CBF93B26DBF9ED86EBF1A
:1046000073F56FBF080971BF521372BF471473BFB0
:10461000DD0B74BF0BFA74BFC6DE75BF07BA76BF79
:10462000C58B77BFF85378BF981279BF9DC779BF04
:1046300002737ABFBE147BBFCDAC7BBF283B7CBF6F
:10464000C9BF7CBFAC3A7DBFCCAB7DBF23137EBF5F
:10465000B0707EBF6DC47EBF580E7FBF6D4E7FBFF2
:10466000AB847FBF0FB17FBF97D37FBF43EC7FBFCA
:1046700011FB7FBF000080BF11FB7FBF43EC7FBFFA
:1046800097D37FBF0FB17FBFAB847FBF6D4E7FBF1E
:10469000580E7FBF6DC47EBFB0707EBF23137EBF38
:1046A000CCAB7DBFAC3A7DBFC9BF7CBF283B7CBFD4
:1046B000CDAC7BBFBE147BBF02737ABF9DC779BFF1
:1046C000981279BFF85378BFC58B77BF07BA76BF0A
:1046D000C6DE75BF0BFA74BFDD0B74BF471473BF22
:1046E000521372BF080971BF73F56FBF9ED86EBFBA
:1046F00093B26DBF5E836CBF0C4B6BBFA7096ABFE3
:104700003CBF68BFD86B67BF880F66BF59AA64BF3C
:104710005A3C63BF97C561BF214660BF05BE5EBFFF
:10472000532D5DBF1A945BBF6AF259BF534858BFFF
:10473000E59556BF31DB54BF491853BF3D4D51BFBE
:10474000207A4FBF029F4DBFF8BB4BBF12D149BF6C
:1047500065DE47BF03E445BF01E243BF70D841BFF8
:1047600067C73FBFF9AE3DBF3B8F3BBF426839BF14
:10477000233A37BFF30435BFC9C832BFBB8530BF4A
:10478000DE3B2EBF4AEB2BBF159429BF563627BF01
:1047900025D224BF996722BFCBF61FBFD17F1DBF93
:1047A000C6021BBFC07F18BFD9F615BF2A6813BF4A
:1047B000CDD310BFDA390EBF6B9A0BBF9BF508BF84
:1047C000824B06BF3D9C03BFE4E700BF275DFCBEF4
:1047D000CBE0F6BEEA5AF1BEBBCBEBBE7533E6BE0C
:1047E0004F92E0BE80E8DABE4136D5BECA7BCFBE6E
:1047F00053B9C9BE15EFC3BE491DBEBE2A44B8BEDB
:10480000EF63B2BED47CACBE128FA6BEE59AA0BE4A
:1048100086A09ABE32A094BE229A8EBE938E88BE87
:10482000C07D82BECCCF78BE7F9A6CBE135C60BE6A
:10483000011554BEC2C547BECF6E3BBEA2102FBEEF
:10484000B5AB22BE834016BE87CF09BE73B2FABD98
:104850002FBCE1BD36BDC8BD80B6AFBD04A996BDB5
:10486000752B7BBD2EFB48BD2BC316BDB10AC9BC41
:10487000920E49BC000000800102020304050607F5
:1048800008090A0B0C0D0E0F1010000000000000AC
:1048900000000102030406070809000000000102ED
:1048A0000304000002400000000000A0000000001F
:1048B00005400000000000C8000000000C4000009F
:1048C0000000409C00000000194000000020BCBE19
:1048D0000000000034400000BFC91B8E000000042F
:1048E000B5400000504BCFD06607E2CF010000007A
:1048F0006C4100003E8251AADFEEA73401000000A7
:10490000D9420000DCB5A0E23A301F97FFFFFFFF5D
:10491000B4450000FD25A0C8E9A3C14FFFFFFFFF7C
:10492000FF3F00000000008000000000FF3F00008B
:104930000000008000000000744900080000002012
:10494000280000006C0100089C4900082800002095
:1049500040080000880100081C000000430000001F
:10496000F8FFFFFF0C0000000E0000000F00000029
:104970002E00000000000000000000000000000009
:104980000000000000000000000000000100000026
:0C499000100000000000000000127A007F
:0400000508000131BD
:00000001FF
