:020000040800F2
:1000000068060020CD010008D3070008B5030008EA
:10001000D1070008CF020008AB080008000000006C
:1000200000000000000000000000000009080008B7
:10003000D102000800000000070800080B080008B3
:10004000E7010008E7010008E7010008E7010008F0
:10005000E7010008E7010008D5020008E7010008F1
:100060000D030008450300087D030008E7010008B0
:10007000E7010008E7010008E7010008E7010008C0
:10008000E7010008E7010008E7010008E7010008B0
:10009000E7010008E7010008E7010008E7010008A0
:1000A000E7010008E7010008E7010008E701000890
:1000B000E7010008E7010008E7010008E701000880
:1000C000E7010008E7010008E7010008E701000870
:1000D000E7010008E7010008E7010008E701000860
:1000E000E7010008E7010008E7010008E701000850
:1000F000E7010008E7010008E7010008E701000840
:10010000E7010008E7010008E7010008E70100082F
:10011000E7010008E7010008E7010008E70100081F
:10012000E7010008E7010008E7010008E70100080F
:1001300000F002F800F03AF80AA090E8000C8244BF
:100140008344AAF10107DA4501D100F02FF8AFF29C
:10015000090EBAE80F0013F0010F18BFFB1A43F0A5
:10016000010318472408000044080000103A24BF87
:1001700078C878C1FAD8520724BF30C830C144BF0C
:1001800004680C607047000000230024002500264E
:10019000103A28BF78C1FBD8520728BF30C148BFEA
:1001A0000B6070471FB51FBD10B510BD00F058F8AB
:1001B0001146FFF7F7FF00F09FFB00F076F803B45D
:1001C000FFF7F2FF03BC00F07BF80000094880470E
:1001D00009480047FEE7FEE7FEE7FEE7FEE7FEE729
:1001E000FEE7FEE7FEE7FEE704480549054A064B41
:1001F00070470000A90800083101000868000020CD
:100200006806002068020020680200204FF000020B
:1002100000B5134694469646203922BFA0E80C50FC
:10022000A0E80C50B1F12001BFF4F7AF090728BFD7
:10023000A0E80C5048BF0CC05DF804EB890028BF53
:1002400040F8042B08BF704748BF20F8022B11F07C
:10025000804F18BF00F8012B7047704770477047F8
:10026000754600F029F8AE4605006946534620F071
:100270000700854618B020B5FFF7B6FFBDE820405F
:100280004FF000064FF000074FF000084FF0000B52
:1002900021F00701AC46ACE8C009ACE8C009ACE805
:1002A000C009ACE8C0098D4670470446AFF3008032
:1002B0002046FFF784FF000000487047040000203C
:1002C00001491820ABBEFEE7260002007047FEE79A
:1002D0007047000010B5012000F0CAF800280ED0C9
:1002E00007490120086042F220042146054800F039
:1002F00074F92146BDE81040034800F06EB910BD06
:1003000014040140000C01400018014010B5042005
:1003100000F0AEF800280ED007490420086042F231
:1003200020042146054800F058F92146BDE8104058
:10033000034800F052B910BD14040140000C014004
:100340000018014010B5082000F092F800280ED0E7
:1003500007490820086042F220042146054800F0C1
:100360003CF92146BDE81040034800F036B910BD05
:1003700014040140000C01400018014010B5102089
:1003800000F076F800280ED007491020086042F2ED
:1003900020042146054800F020F92146BDE8104020
:1003A000034800F01AB910BD14040140000C0140CC
:1003B00000180140FEE70000044908B58A690243BD
:1003C0008A6189690140009108BD00000010024067
:1003D00030B5264A002405790168131F85B371B32F
:1003E00045798DB1012D17D0022D18D001248379C4
:1003F0002BB31E4908310A1F012B18D0022B20D025
:10040000032B22D0012428E015688D431560016874
:100410001A680A431A60EAE71D688D4301E01D6807
:100420000D431D60016813680B431360DFE7036829
:100430000D689D430D6000681168014311600CE078
:100440000DE0036815689D4302E0036815681D43CD
:10045000156000680A6802430A60204630BD1D68C6
:100460008D431D60006811688143E7E70404014083
:1004700003490968884301D0002070470120704774
:10048000140401400A06930D064A1A44936823EAAD
:100490001143090C91FAA1F1B1FA81F188400343AB
:1004A0009360704700000140F0B50A68C2F30F2561
:1004B00095FAA5F2B2FA82F369E001229A402A4243
:1004C00064D0082B03D240F201129A4006E0A3F157
:1004D00008024FF00114944044F080624C68082CEC
:1004E0000BD10C69C668170A97FAA7F7B7FA87F70E
:1004F00026EA1226BC402643C66092FAA2F700EB19
:100500001264B7FA87F74FEA870C0F27266807FAB5
:100510000CF7BE4392FAA2F7D1F804E0B7FA87F7D6
:10052000BF000EFA07FE46EA0E0626604F68012F4E
:1005300001D0092F2AD192FAA2F7B7FA87F74FEA2A
:10054000870C032707FA0CF7BE4392FAA2F7B7FA13
:1005500087F7D1F808E0BF000EFA07FE92FAA2FC76
:1005600046EA0E06BCFA8CFC4FEA8C0E4FF0040CE7
:1005700026600CFA0EFC92FAA2F2B2FA82F2CF686E
:10058000920026EA0C0697403E4326605B1C35FA33
:1005900003F292D10020F0BD30B591FAA1F400EB46
:1005A0001160B4FA84F4A5000F24AC4091FAA1F1D3
:1005B0000368B1FA81F18900A3438A4013430360C1
:1005C00030BDC36823EA1123090A91FAA1F1B1FAF7
:1005D00081F18A401343C3607047C268C1F30F21A1
:1005E00021EA02030A4043EA0241016170474FF4E5
:1005F0007A71B0FBF1F14FF0E020491E416100211A
:100600008161052101617047014908607047000060
:10061000000000202DE9F04F87B000240094142141
:1006200002A80194FFF7F2FD4020FFF7C5FE10205D
:10063000FFF7C2FE0420FFF7BFFE0820FFF7BCFE55
:10064000DFF87C81202042F22007C8F81000DFF894
:100650007491C9F810004FF070610420FFF712FF89
:100660004FF070410420FFF70DFF57490420FFF7BA
:1006700009FF4FF470210020FFF704FF012504203B
:100680008DF8045000908DF8054003268DF8066023
:100690006846FFF79DFE08208DF8045000908DF805
:1006A00005408DF806606846FFF792FE10208DF831
:1006B000045000908DF805408DF806606846FFF7FD
:1006C00087FE8DF804508DF8054000958DF8066082
:1006D0006846FFF77DFEFE10012231464046FFF7D7
:1006E00070FF40F6080A012251464046FFF769FFB5
:1006F00041F2100B012259464046FFF762FF0022EB
:10070000B1103248FFF75DFF082231464046FFF73F
:1007100043FF082251464046FFF73EFF0822594654
:100720004046FFF739FF0822B1102848FFF734FF91
:100730000226CDE90464CDE9027502A94046FFF71F
:10074000B3FECDE90464CDE9027502A94846FFF77E
:10075000ABFE00F0B9F80022114600F03BF801466C
:10076000062000F0B9F8062000F0A0F800F0ACF880
:100770000022114600F02EF80146082000F0ACF8E7
:10078000082000F093F800F09FF80022114600F0D6
:1007900021F80146092000F09FF8092000F086F8B2
:1007A00000F092F80022114600F014F801460A20E9
:1007B00000F092F80A2000F079F807B0BDE8F08F59
:1007C00000180140000C014001000F00000801402A
:1007D000FEE7FEE730B500F00703C3F10704042C81
:1007E00000D90424181D072801D2002300E0DB1ED5
:1007F000012505FA04F0401E084098409D406D1EFA
:100800001540284330BD704770477047234810B5E6
:10081000016821F0070141F002010160016801F067
:1008200007010229FAD11E48016841F480310160B4
:100830000168C1F340410029FAD0416821F47C11DC
:1008400041F4E8114160016841F080710160016884
:10085000C1F340610029FAD0416821F0F001416004
:10086000416821F4E06141F480614160416821F414
:1008700060514160416821F0030141F00201416093
:10088000416801F00C010829FAD1064C2046FFF717
:10089000AEFE2046BDE81040FFF7B6BE0020024085
:1008A0000010024000A24A047047FEE7002809DB5E
:1008B00000F01F02012191404009800000F1E0207A
:1008C000C0F800117047000002480068C0F3022021
:1008D000704700000CED00E00907090E002804DB5A
:1008E00000F1E02080F80014704700F00F0000F1E4
:1008F000E02080F8141D70471E4808B5816941F05A
:1009000001018161816901F001010091C16941F03A
:100910008051C161C06900F08050009016480168A4
:100920004FF6FF021140154A41F440711143016036
:100930000068C0F30220C0F10702042A00D9042293
:10094000011D072901D2002000E0C01E01219140B5
:10095000491E814008010A4981F8140D094841687F
:1009600021F0E06141F000714160FFF74FFFFFF7B8
:1009700051FEFEE7001002400CED00E00000FA0519
:100980000FE000E000000140A8090008000000207E
:10099000040000006C010008AC09000804000020FD
:0C09A000640600008801000800127A00C4
:0400000508000131BD
:00000001FF
