:020000040800F2
:10000000C0070020D5010008B7170008FD1100083F
:10001000B5170008EB040008691B00080000000089
:10002000000000000000000000000000ED170008C4
:100030002F05000800000000EB170008EF1700086C
:10004000EF010008EF010008EF010008EF010008D0
:10005000EF010008EF01000831050008EF0100087A
:10006000490500086105000879050008EF0100084E
:10007000EF010008EF010008ED040008F904000892
:10008000EF010008EF010008EF010008EF01000890
:10009000EF010008EF010008EF010008EF01000880
:1000A000EF010008EF010008EF010008EF01000870
:1000B000EF010008EF010008EF010008EF01000860
:1000C000EF010008EF010008EF010008EF01000850
:1000D000EF0100085D1B0008EF010008EF010008B8
:1000E000EF010008EF010008EF010008EF01000830
:1000F000EF010008EF010008EF010008EF01000820
:10010000EF010008EF010008EF010008EF0100080F
:10011000EF010008EF01000899180008EF0100083E
:10012000EF010008EF010008EF010008EF010008EF
:1001300000F002F800F03FF80AA090E8000C8244BA
:100140008344AAF10107DA4501D100F034F8AFF297
:10015000090EBAE80F0013F0010F18BFFB1A43F0A5
:1001600001031847D81A0000F81A0000103A24BFFB
:1001700078C878C1FAD8520724BF30C830C144BF0C
:1001800004680C607047000000230024002500264E
:10019000103A28BF78C1FBD8520728BF30C148BFEA
:1001A0000B607047642900F08580002070471FB500
:1001B0001FBD10B510BD00F062F91146FFF7F7FF43
:1001C00001F008FD00F080F903B4FFF7F2FF03BC73
:1001D00000F084F90948804709480047FEE7FEE738
:1001E000FEE7FEE7FEE7FEE7FEE7FEE7FEE7FEE7E7
:1001F00004480549054A064B704700009518000859
:1002000031010008C0010020C0070020C003002009
:10021000C00300200FB47CB50C0009AA009001D0E7
:100220002044401E084B7B4469460190089800F02A
:1002300006F905461CB10020694600F013F928466E
:100240007CBC5DF814FB0000450200002DE9F04184
:100250000E460446002020622046E168884730B3FD
:10026000252805D0D4E901219047206A401CF2E7F7
:10027000E168204600278847050018D0A5F1410015
:10028000192802D820354FF4006732462946204607
:100290002760FFF787FF40B1012804D0F61D26F044
:1002A00007060836D8E7361DD6E72846DAE7206A7B
:1002B000BDE8F0812DE9F04106460024106875295B
:1002C000314616A510D0AFF30080002802DA404274
:1002D00013A507E031688A0701D512A502E0490796
:1002E00004D511A5012401E0AFF3008000210A220A
:1002F00006F1240709E0B0FBF2FCB0FBF2F302FBCD
:100300001C00303078541846491C0028F3D123468D
:100310002A463046BDE8F04100F032B80000000047
:100320002D0000002B000000200000004FF0000214
:1003300000B5134694469646203922BFA0E80C50DB
:10034000A0E80C50B1F12001BFF4F7AF090728BFB6
:10035000A0E80C5048BF0CC05DF804EB890028BF32
:1003600040F8042B08BF704748BF20F8022B11F05B
:10037000804F18BF00F8012B7047704770477047D7
:100380002DE9F0470D4699469246044600F12408AF
:100390000168880604D5E06921F01001216000E0C1
:1003A0000120A84201DD471B00E00027A1697A195E
:1003B00002EB0900081AA0612078C00602D420468A
:1003C000AFF30080002608E0D4E901211AF8060006
:1003D0009047206A401C761C20624E45F4DB207852
:1003E000C0060AD52046AFF3008006E0D4E901211B
:1003F00030209047206A401C2062381EA7F1010778
:10040000F4DC07E0D4E9012118F805009047206AE0
:10041000401C2062281EA5F10105F3DC2046AFF345
:1004200000802078000602D50220BDE8F087012078
:10043000FBE7000001694A1C02610878704700B5BB
:100440008FB0CDE901310021059105497944CDE90D
:10045000031011466846FFF7F9FE0FB000BD00001B
:10046000E5FFFFFF0A6802F8010B0A607047D1E957
:1004700000239A4202D2531C0B60107070477546DD
:1004800000F028F8AE4605006946534620F0070004
:10049000854618B020B5FFF7ABFEBDE820404FF011
:1004A00000064FF000074FF000084FF0000B21F05E
:1004B0000701AC46ACE8C009ACE8C009ACE8C0092B
:1004C000ACE8C0098D4670470446AFF30080204673
:1004D000FFF77AFE004870476001002001491820AC
:1004E000ABBEFEE7260002007047FEE7014800F0C1
:1004F0000DB90000D8000020014800F007B9000045
:100500001C01002030B590F840500124AC40C56B70
:100510006C60046863604368102B036803D09960C3
:100520000068C26030BD9A600068C16030BD70472D
:1005300010B5012000F0C0FE002802D001490120C2
:10054000086010BD1404014010B5042000F0B4FE92
:10055000002802D001490420086010BD14040140A5
:1005600010B5082000F0A8FE002802D0014908209C
:10057000086010BD1404014010B5102000F09CFE6E
:10058000002802D001491020086010BD1404014069
:1005900072B6FEE710B590F821100022022905D0AE
:1005A0000421816380F82020012010BD01680B68C0
:1005B00023F00E030B6001680B6823F001030B604E
:1005C00090F84030C46B012101FA03F3636080F8B6
:1005D000211080F82020104610BD00002DE9F05FAA
:1005E00090F821100024022903D004218163012402
:1005F00085E001680A6822F00E020A6001680A6854
:1006000022F001020A603F4E3E4FB215DFF8F4C0FF
:10061000DFF8F090DFF8ECA0DFF8E8B0DFF8E4E016
:100620000168783F13011502ACF1640CA9F150097F
:10063000AAF13C0AABF1280BAEF1140E4FF480186E
:10064000B14227D9B9420ED0614512D049451DD0DB
:10065000514518D0594518D0714501D1424615E091
:10066000294EB14201D1012210E0274E1436B14289
:1006700001D110220AE0244E2836B14206D0224A87
:100680003C32914201D11A4600E02A461E49091F18
:100690000A602BE0B94213D0614517D0494522D0FA
:1006A00051451DD059451DD0714501D142461AE032
:1006B000B14202D14FF0807215E0134EB14201D128
:1006C000012210E0104E1436B14201D110220AE08E
:1006D0000D4E2836B14206D00B4A3C32914201D130
:1006E0001A4600E02A46074980394A60012180F80D
:1006F0002110002180F82010416B01B1884720466D
:10070000BDE8F09F80000240080402402DE9F05F40
:10071000C16B0A6801680B68046C4FF0040808FAA2
:1007200004F8844D844E854FDFF814C2DFF814922C
:10073000DFF814A2DFF814B2DFF814E218EA020FAF
:1007400065D05FEA437862D50A68920603D40A68E6
:1007500022F004020A60DFF8F0814FF48062016841
:1007600008F1140813011402414524D9A9420DD0FF
:10077000B1420FD0B9421AD0614515D0494515D0C4
:10078000514501D1120312E0594501D104220EE076
:10079000714501D140220AE06D4D1435A94206D0C1
:1007A0006B4A2832914201D11A4600E0224667493D
:1007B000091F0A6029E0A94213D0B14215D0B942FD
:1007C00020D061451BD049451BD0514502D14FF483
:1007D000800217E0414502D14FF0806212E0594596
:1007E00001D104220EE0714501D140220AE0584DAA
:1007F0001435A94206D0564A2832914201D11A46F0
:1008000000E022464B4908394A60C16A71E04FF066
:10081000020808FA04F818EA020F70D05FEA837839
:100820006DD50A68920606D40A6822F00A020A60A8
:10083000012180F82110DFF810814FF40072016867
:1008400008F1140813011402414524D9A9420DD01E
:10085000B1420FD0B9421AD0614515D0494515D0E3
:10086000514501D1120312E0594501D102220EE097
:10087000714501D120220AE0354D1435A94206D038
:10088000334A2832914201D11A4600E022462F49CC
:10089000091F0A6029E0A94213D0B14215D0B9421C
:1008A00020D061451BD049451BD0514502D14FF4A2
:1008B000001217E0414502D14FF0007212E0594595
:1008C00001D102220EE0714501D120220AE0204D23
:1008D0001435A94206D01E4A2832914201D11A4647
:1008E00000E02246134908394A60002180F82010B0
:1008F000816A00291CD0BDE8F05F0847FFE70825A2
:10090000A540154214D01A0712D50A6822F00E022B
:100910000A6090F84020C36B012101FA02F25A608C
:10092000816380F82110002180F82010016BE0E73E
:10093000BDE8F09F080002401C0002403000024069
:1009400044000240580002406C000240080402408B
:100950001C04024030B560B11A4B026814219A425F
:1009600009D2194B1344B3FBF1F189000164174913
:100970000AE0012030BD134B5B421344B3FBF1F19D
:10098000890001640F490839C163022180F82110F0
:10099000136843F6F0718B43F0E901142143D0E969
:1009A00002452C432143046921434469214384695E
:1009B00021431943116000214163012242770177ED
:1009C000084630BD08040240F8FFFDBF00000240A9
:1009D00070B5044690F82000002501280CD00120B5
:1009E00084F8200094F821600020012E06D084F8BD
:1009F00020000225284670BD022070BD022684F822
:100A00002160A0632068066826F001060660204683
:100A1000FFF778FDE06A00282068016802D041F005
:100A20000E0106E021F0040101602068016841F038
:100A30000A0101602068016841F001010160D9E705
:100A40002DE9F84FDFF8C8910024A9F1040B2346E3
:100A50000F2709F1040AABF1040ED1E00125A540EE
:100A600006EA0502AA4276D1DFF8A8C14E68A6EBD5
:100A70000C0866452BD00DDC032E34D005DC36B3D4
:100A8000012E19D0022E2FD11BE0112E16D0122EBE
:100A90002AD119E0B8F5881F19D006DCB8F5803FD7
:100AA00015D0B8F5801F1FD111E0B8F5001F0ED08A
:100AB000B8F5041F18D10AE0CB6815E0CB681B1D00
:100AC00012E0CB6808330FE0CB680C330CE08B6886
:100AD0002BB1012B4FF0080303D0456104E0042340
:100AE00002E0056100E00023FF2A01D8064601E08C
:100AF00000F104064FEA840501D9A5F12005D6F8D6
:100B0000008007FA05FC28EA0C0803FA05F548EA14
:100B10000508C6F800804D68ED0070D53E4DAE6901
:100B200046F00106AE61AD6924F0030605F001054B
:100B300000953A4D06EB050CDCF80850A607360F79
:100B400007FA06F825EA0805DFF8D480404503D106
:100B50004FF0000825E052E0DFF8C880404502D1A0
:100B60004FF001081DE0DFF8C080404502D14FF092
:100B7000020816E0DFF8B480404502D14FF00308C8
:100B80000FE0DFF8AC80404502D14FF0040808E0E8
:100B9000DFF8A080404502D14FF0050801E04FF09A
:100BA000060808FA06F848EA0508CCF808804D68F7
:100BB000D9F80060ED024D4601D5164300E096439A
:100BC0002E604D68DAF80060AD02554601D5164337
:100BD00000E096432E604D68DBF80060AD035D4693
:100BE00001D5164300E096432E604D68DEF80060A4
:100BF000ED03754601D5164300E096432E60641C54
:100C00000A681646E2407FF429AFBDE8F88F00007D
:100C100008040140000011100010024000000140D3
:100C200000080140000C0140001001400014014088
:100C300000180140001C01400248816802781144FC
:100C40008160704700000020074810B5016841F03E
:100C500010010160032000F075F80F2000F006F885
:100C600000F024F8002010BD0020024070B50D4DAA
:100C700004464FF47A712878B1FBF0F00A4909680C
:100C8000B1FBF0F000F090F848B9102C07D2002228
:100C90002146501E00F036F800206C6070BD012027
:100CA00070BD0000000000200C0000200C4808B5BA
:100CB000816941F001018161816901F001010091C7
:100CC000C16941F08051C161C06900F0805000905D
:100CD0000448416821F0E06141F00071416008BDC5
:100CE0000010024000000140002809DB00F01F0254
:100CF000012191404009800000F1E020C0F800117E
:100D000070470000F0B40E4B1B680C46C3F302237F
:100D1000C3F10705042D00D90425191D072901D2A7
:100D2000002300E0DB1E012606FA05F1491E2140E2
:100D300099409E40761E16403143F0BC00F03ABF09
:100D40000CED00E0064900F0070208684FF6FF03CB
:100D5000184040EA0220034A104308607047000030
:100D60000CED00E00000FA050448054900684968F8
:100D7000044AC1F30221515CC84070470C000020B6
:100D800000100240341C0008044805490068496806
:100D9000044AC1F3C221515CC84070470C000020D6
:100DA00000100240341C000810B5401EB0F1807FD6
:100DB00001D3012010BD4FF0E02460610F216017C6
:100DC00000F0F8FE0020A06107202061002010BD87
:100DD00070477047F8B5016804460868CA684B69EF
:100DE00010F00F0F4FF000055AD003F0010602F487
:100DF0009077374365D0C10705D0D10503D5616C25
:100E000041F001016164410705D5D90703D0616C48
:100E100041F002016164810705D5D90703D0616CF7
:100E200041F004016164010707D502F0200131435C
:100E300003D0616C41F008016164616C00293BD012
:100E4000800604D5900602D5204600F0C9FD206832
:100E50004069616CC0F3801001F008010143204635
:100E60002BD000F088FD20684069400621D520681D
:100E7000143050E8001F21F0400140E80012002A21
:100E8000F5D1E06BA8B16D494163E06BFFF7A6FBBC
:100E9000002811D0E06B416B01B0BDE8F04008477D
:100EA00083060ED593060CD52046BDE8F84000F029
:100EB00097BD2046FFF78DFFF8BDFFF78AFF6564F9
:100EC000F8BD266B2023012E7CD1C6067AD5D60626
:100ED00078D508684868009048694FF002064006D7
:100EE00040D5E16B086840680004000CE8D0A28D92
:100EF0008242E5D9E085886920282DD020680C3011
:100F000050E8001F21F4807140E80012002AF5D15A
:100F10002168143151E8000F20F0010041E800027F
:100F2000002AF5D12068143050E8001F21F040015C
:100F300040E80012002AF5D184F842302563206889
:100F40000C3050E8001F21F0100140E80012002A88
:100F5000F5D1E06BFFF71EFB6663A08DE18D401AB3
:100F600081B22AE0A08DE18D401A81B2E08D002887
:100F7000A6D00029A4D022680C3252E8000F20F439
:100F8000907042E80007002FF5D12068143050E837
:100F9000002F22F0010240E80027002FF5D184F84D
:100FA0004230256320680C3050E8002F22F01002F8
:100FB00040E80023002BF5D166632046FFF708FFC9
:100FC000F8BDFFE705062BD5150629D594F8410095
:100FD0002128F5D1A068B0F5805F01D12069B0B1BA
:100FE000206A411C2162216800784860E08C401E24
:100FF0000004000CE084E3D12068C16821F0800186
:10100000C1602068C16841F04001C160D8E7206A32
:101010000088C0F308004860206A801C2062E5E771
:101020004006CDD55006CBD5CA68204622F04002F6
:10103000CA6084F8413000F0DFF8C1E7D118000839
:1010400070B5040004D094F84100002510B106E00A
:10105000012070BD84F84050204600F023F8242081
:1010600084F841002068C16821F40051C160204625
:1010700000F018FD2068016921F4904101612068A9
:10108000416921F02A0141612068C16841F40051A1
:10109000C1606564202084F8410084F842006563E3
:1010A000002070BDF0B585B0002406460094019480
:1010B0000294039400682C49884253D12B488169DB
:1010C00041F480418161816901F480410491816929
:1010D00041F0040181618069254D00F00400049015
:1010E0004FF40070009002200190032003906946A5
:1010F0002846FFF7A5FC2815CDE9000469462846D7
:101100000294FFF79DFC1C4D1A48802701C5102052
:1011100091C5194845F810496C61AC61EC61FFF765
:1011200019FC08B1FFF734FAB5636E62124D11482D
:1011300044351430C5E90004C5E902472C616C61EF
:10114000AC612846EC61FFF705FC08B1FFF720FA17
:10115000F5630022114625206E62FFF7D3FD25209E
:10116000FFF7C2FD05B0F0BD00380140001002409D
:101170000008014044000240D800002070470000F1
:1011800070B5044690F84100202801D0022070BDBF
:1011900049B342B32162A284E28400206064212327
:1011A00084F84130A56B114BAB62A56B104BEB6221
:1011B000A56B104B2B63A36B5863256813462A1D40
:1011C000A06BFFF705FC21686FF040000860206805
:1011D000143050E8001F41F0800140E80012002A5E
:1011E000F5D1002070BD012070BD00002B19000852
:1011F0006D190008E118000870477047FEE700000D
:10120000044908B58A6902438A61896901400091ED
:1012100008BD00000010024030B5264A00240579C0
:101220000168131F85B371B345798DB1012D17D0B6
:10123000022D18D0012483792BB31E4908310A1FCF
:10124000012B18D0022B20D0032B22D0012428E020
:1012500015688D43156001681A680A431A60EAE749
:101260001D688D4301E01D680D431D600168136812
:101270000B431360DFE703680D689D430D60006852
:101280001168014311600CE00DE0036815689D438F
:1012900002E0036815681D43156000680A68024390
:1012A0000A60204630BD1D688D431D6000681168CE
:1012B0008143E7E70404014003490968884301D0FA
:1012C0000020704701207047140401400A06930D66
:1012D000064A1A44936823EA1143090C91FAA1F1D2
:1012E000B1FA81F1884003439360704700000140E8
:1012F000F0B50A68C2F30F2595FAA5F2B2FA82F3A7
:1013000069E001229A402A4264D0082B03D240F2BD
:1013100001129A4006E0A3F108024FF00114944034
:1013200044F080624C68082C0BD10C69C668170A1F
:1013300097FAA7F7B7FA87F726EA1226BC402643A2
:10134000C66092FAA2F700EB1264B7FA87F74FEA89
:10135000870C0F27266807FA0CF7BE4392FAA2F70C
:10136000D1F804E0B7FA87F7BF000EFA07FE46EAA5
:101370000E0626604F68012F01D0092F2AD192FA5C
:10138000A2F7B7FA87F74FEA870C032707FA0CF79B
:10139000BE4392FAA2F7B7FA87F7D1F808E0BF0088
:1013A0000EFA07FE92FAA2FC46EA0E06BCFA8CFC84
:1013B0004FEA8C0E4FF0040C26600CFA0EFC92FAE9
:1013C000A2F2B2FA82F2CF68920026EA0C069740A7
:1013D0003E4326605B1C35FA03F292D10020F0BD3B
:1013E00030B591FAA1F400EB1160B4FA84F4A500D1
:1013F0000F24AC4091FAA1F10368B1FA81F18900A0
:10140000A3438A401343036030BDC36823EA11231A
:10141000090A91FAA1F1B1FA81F18A401343C3603C
:101420007047C268C1F30F2121EA02030A4043EA70
:1014300002410161704700000149086070470000E7
:101440000C000020F0B502681C4B1D4D1D4E1E4FB8
:101450001E4C4FF0804C984209D0A04207D0604506
:1014600005D0A84203D0B04201D0B84205D1D1F88E
:1014700004E022F0700242EA0E02984209D0A04233
:1014800007D0604505D0A84203D0B04201D0B84291
:1014900003D1CD6822F440722A4302608A68C26296
:1014A0000A888262984201D0A04201D10969016391
:1014B000416941F0010141610020F0BD002C014073
:1014C0000004004000080040000C004000340140CF
:1014D00008B54FF0E0210A690092421C00D0401C80
:1014E0000A69D20300D5401E0028F9D108BD0000CA
:1014F0000D4808B5416941F0010141614069002290
:1015000000F00100009011460E20FFF7FBFB0E20BB
:10151000FFF7EAFB002211460F20FFF7F3FBBDE8BF
:1015200008400F20FFF7E0BB001002402DE9F04F0C
:1015300087B000240094142102A80194FEF7F6FE5F
:101540004020FFF75DFE1020FFF75AFE0420FFF752
:1015500057FE0820FFF754FEDFF87C81202042F27E
:101560002007C8F81000DFF87491C9F810004FF098
:1015700070610420FFF7AAFE4FF070410420FFF7CE
:10158000A5FE57490420FFF7A1FE4FF4702100206B
:10159000FFF79CFE012504208DF8045000908DF883
:1015A000054003268DF806606846FFF735FE0820E3
:1015B0008DF8045000908DF805408DF8066068465F
:1015C000FFF72AFE10208DF8045000908DF805409A
:1015D0008DF806606846FFF71FFE8DF804508DF801
:1015E000054000958DF806606846FFF715FEFE1071
:1015F000012231464046FFF708FF40F6080A012263
:1016000051464046FFF701FF41F2100B01225946B7
:101610004046FFF7FAFE0022B1103248FFF7F5FE10
:10162000082231464046FFF7DBFE0822514640467D
:10163000FFF7D6FE082259464046FFF7D1FE0822A2
:10164000B1102848FFF7CCFE0226CDE90464CDE9AD
:10165000027502A94046FFF74BFECDE90464CDE9CF
:10166000027502A94846FFF743FE00F08BFA0022FC
:10167000042100F0A1F80146062000F08BFA0620B4
:1016800000F073FA00F07EFA0022042100F094F8D2
:101690000146082000F07EFA082000F066FA00F00B
:1016A00071FA0022042100F087F80146092000F0B9
:1016B00071FA092000F059FA00F064FA00220421BE
:1016C00000F07AF801460A2000F064FA0A2000F0DF
:1016D0004CFA07B0BDE8F08F00180140000C014043
:1016E00001000F000008014010B586B014216846C3
:1016F000FEF71CFE1D48C16941F01001C161C069BF
:1017000000F0100005901A480068C0F30220011D87
:10171000072901D2002000E0C01E002202FA00F1D9
:101720000801144981F8000412494FF4800032394D
:10173000C1F800014720ADF800006320CDE9012089
:101740000D4C69462046FFF77DFE206840F0800082
:101750002060606820F0700040F020006060A068A9
:1017600020F08000A06006B010BD00000010024014
:101770000CED00E036E000E0001000400C4810B531
:101780000A4901604FF4E1314160002181600C227F
:10179000C160C0E904128161C161FFF751FC0028FA
:1017A00003D0BDE81040FEF7F3BE10BD0038014085
:1017B00090000020FEE7FEE730B500F00703C3F11C
:1017C0000704042C00D90424181D072801D2002383
:1017D00000E0DB1E012505FA04F0401E0840984099
:1017E0009D406D1E1540284330BD70477047FFF780
:1017F00023BA0000244810B5016821F0070141F028
:1018000002010160016801F007010229FAD11F48B5
:10181000016841F4803101600168C1F34041002951
:10182000FAD0416821F47C1141F4E811416001686B
:1018300041F0807101600168C1F340610029FAD074
:10184000416821F0F0014160416821F4E06141F418
:1018500080614160416821F460514160416821F03C
:10186000030141F002014160416801F00C010829C7
:10187000FAD10748FFF7E0FD0F20FFF7F7F900283E
:1018800001D072B6FEE710BD0020024000100240F9
:1018900000A24A04704700000A4810B5016911F01F
:1018A000010F0ED06FF00101016142F220042146C8
:1018B0000548FFF7B6FD2146BDE810400348FFF795
:1018C000B0BD10BD00100040000C014000180140E8
:1018D00010B5406A0021C185C184FFF77AFA10BDB6
:1018E00070B5446A2068406994F84110C0F3C01094
:1018F0000025212904D118B1E584204600F062F8C2
:101900002068406994F84210C0F38010222904D165
:1019100018B1E585204600F02EF8606C40F010000C
:1019200060642046FFF755FA70BD10B50146406A65
:1019300009680968890616D40021C1840168143138
:1019400051E8002F22F0800241E80023002BF5D15E
:1019500001680C3151E8002F42F0400241E80023B9
:10196000002BF5D110BDFFF747FC10BD10B5406A44
:10197000FFF743FC10BD01680C3151E8002F22F441
:10198000907241E80023002BF5D10168143151E831
:10199000002F22F0010241E80023002BF5D1016B5A
:1019A000012909D101680C3151E8002F22F0100201
:1019B00041E80023002BF5D1202180F842100021BE
:1019C0000163704701680C3151E8002F22F0C0021A
:1019D00041E80023002BF5D1202180F84110704709
:1019E00008B590F84210222901D0022008BD826873
:1019F0004FF480539A4201D1016921B1816A9A4220
:101A00001BD04AB10AE00268816A5268C2F3080238
:101A10000A80816A891C08E0026972B10268526812
:101A200002F07F020A70816A491C8162C18D491EE1
:101A30000904090CC18503D01BE002685268F1E774
:101A40000168CA6822F02002CA600168CA6822F4EC
:101A50008072CA6001684A6922F001024A6120214D
:101A600080F8421000214163026B012A03D0FFF786
:101A700085FB002008BD016301680C3151E8002F8F
:101A800022F0100241E80023002BF5D101680A681A
:101A9000D20602D50A6849680091818DFFF798F94E
:101AA000E7E7000070B5044600680169E26821F4C8
:101AB0004051114301612169A068084361690843ED
:101AC0002168CA6841F20C639A430243CA602068E5
:101AD0004169A26921F44071114341611E492068A6
:101AE000884202D1FFF750F901E0FFF73DF900EB22
:101AF000C00101EB0012606864218000B2FBF0F3CA
:101B0000B3FBF1F36FF018067343B2FBF0F5B2FBD1
:101B1000F0F605EB8305322303EB0515B5FBF1F574
:101B2000B6FBF1F605F0F00505EB0615B2FBF0F695
:101B3000B2FBF0F0B0FBF1F06FF01802504306EB8F
:101B4000800003EB0010B0FBF1F0216800F00F0003
:101B50002844886070BD0000003801400148FFF74C
:101B600039B9000090000020FEE7002809DB00F0F2
:101B70001F02012191404009800000F1E020C0F8DF
:101B80000011704702480068C0F30220704700004F
:101B90000CED00E00907090E002804DB00F1E0204D
:101BA00080F80014704700F00F0000F1E02080F88A
:101BB000141D70470907090E002804DB00F1E0201E
:101BC00080F80014704700F00F0000F1E02080F86A
:101BD000141D70470A24FFF737F8FFF70BFEFFF7D5
:101BE000A5FCFFF785FCFFF77FFDFFF7C7FD0D485C
:101BF000016841F001010160C16841F00101C1606B
:101C0000234609A280210948FEF704FB002804DDD1
:101C100082B206490648FFF7B3FA6420FFF758FC82
:101C2000EEE700000010004025640A0010000020CC
:101C30009000002000000000010203045C1C00086A
:101C400000000020100000006C0100086C1C00085F
:101C500010000020B007000088010008010000000B
:0C1C6000100000000000000000127A00DC
:0400000508000131BD
:00000001FF
