:020000040800F2
:1000000050080020D501000897230008D1200008DF
:1000100095230008EB0400088D2A0008000000006A
:10002000000000000000000000000000C1230008E4
:100030003D0500080000000099230008C3230008C4
:10004000EF010008EF010008EF010008EF010008D0
:10005000EF010008EF0100083F050008EF0100086C
:10006000450500084B05000851050008EF01000890
:10007000EF010008EF010008ED040008F904000892
:10008000EF010008EF010008EF010008EF01000890
:10009000EF010008EF010008EF010008EF01000880
:1000A00029240008EF010008EF010008EF01000813
:1000B000EF010008EF010008EF010008EF01000860
:1000C000EF010008EF010008EF010008EF01000850
:1000D000EF010008812A0008EF010008EF01000885
:1000E000EF010008EF010008EF010008EF01000830
:1000F000EF010008EF010008EF010008EF01000820
:10010000EF010008EF010008EF010008EF0100080F
:10011000EF010008EF01000835240008EF01000896
:10012000EF010008EF010008EF010008EF010008EF
:1001300000F002F800F03FF80AA090E8000C8244BA
:100140008344AAF10107DA4501D100F034F8AFF297
:10015000090EBAE80F0013F0010F18BFFB1A43F0A5
:10016000010318470C2A00002C2A0000103A24BF73
:1001700078C878C1FAD8520724BF30C830C144BF0C
:1001800004680C607047000000230024002500264E
:10019000103A28BF78C1FBD8520728BF30C148BFEA
:1001A0000B607047642900F08580002070471FB500
:1001B0001FBD10B510BD00F062F91146FFF7F7FF43
:1001C00002F066FC00F080F903B4FFF7F2FF03BC15
:1001D00000F084F90948804709480047FEE7FEE738
:1001E000FEE7FEE7FEE7FEE7FEE7FEE7FEE7FEE7E7
:1001F00004480549054A064B7047000025240008BD
:100200003101000850020020500800205004002056
:10021000500400200FB47CB50C0009AA009001D056
:100220002044401E084B7B4469460190089800F02A
:1002300006F905461CB10020694600F013F928466E
:100240007CBC5DF814FB0000450200002DE9F04184
:100250000E460446002020622046E168884730B3FD
:10026000252805D0D4E901219047206A401CF2E7F7
:10027000E168204600278847050018D0A5F1410015
:10028000192802D820354FF4006732462946204607
:100290002760FFF787FF40B1012804D0F61D26F044
:1002A00007060836D8E7361DD6E72846DAE7206A7B
:1002B000BDE8F0812DE9F04106460024106875295B
:1002C000314616A510D0AFF30080002802DA404274
:1002D00013A507E031688A0701D512A502E0490796
:1002E00004D511A5012401E0AFF3008000210A220A
:1002F00006F1240709E0B0FBF2FCB0FBF2F302FBCD
:100300001C00303078541846491C0028F3D123468D
:100310002A463046BDE8F04100F032B80000000047
:100320002D0000002B000000200000004FF0000214
:1003300000B5134694469646203922BFA0E80C50DB
:10034000A0E80C50B1F12001BFF4F7AF090728BFB6
:10035000A0E80C5048BF0CC05DF804EB890028BF32
:1003600040F8042B08BF704748BF20F8022B11F05B
:10037000804F18BF00F8012B7047704770477047D7
:100380002DE9F0470D4699469246044600F12408AF
:100390000168880604D5E06921F01001216000E0C1
:1003A0000120A84201DD471B00E00027A1697A195E
:1003B00002EB0900081AA0612078C00602D420468A
:1003C000AFF30080002608E0D4E901211AF8060006
:1003D0009047206A401C761C20624E45F4DB207852
:1003E000C0060AD52046AFF3008006E0D4E901211B
:1003F00030209047206A401C2062381EA7F1010778
:10040000F4DC07E0D4E9012118F805009047206AE0
:10041000401C2062281EA5F10105F3DC2046AFF345
:1004200000802078000602D50220BDE8F087012078
:10043000FBE7000001694A1C02610878704700B5BB
:100440008FB0CDE901310021059105497944CDE90D
:10045000031011466846FFF7F9FE0FB000BD00001B
:10046000E5FFFFFF0A6802F8010B0A607047D1E957
:1004700000239A4202D2531C0B60107070477546DD
:1004800000F028F8AE4605006946534620F0070004
:10049000854618B020B5FFF7ABFEBDE820404FF011
:1004A00000064FF000074FF000084FF0000B21F05E
:1004B0000701AC46ACE8C009ACE8C009ACE8C0092B
:1004C000ACE8C0098D4670470446AFF30080204673
:1004D000FFF77AFE00487047F0010020014918201C
:1004E000ABBEFEE7260002007047FEE7014800F0C1
:1004F00013B9000068010020014800F00DB90000A8
:10050000AC01002010B490F840C0012404FA0CFCA7
:10051000C46BC4F804C0D0F800C0CCF80430436801
:10052000102B05D0036899600068C26010BC70474A
:1005300003689A600068C16010BC70477047012072
:1005400000F0FCBA042000F0F9BA082000F0F6BA76
:10055000102000F0F3BA72B6FEE790F821100022E6
:10056000022905D00421816380F8202001207047F2
:1005700001680B6823F00E030B6001680B6823F021
:1005800001030B6090F84030D0F83CC0012101FA23
:1005900003F3CCF8043080F8211080F820201046B6
:1005A000704700002DE9F05F002490F82110022927
:1005B00003D004218163012490E001680A6822F0DD
:1005C0000E020A6001680A6822F001020A60454AC8
:1005D0000168454BDFF814C1454D464E464FDFF8E4
:1005E0001C81DFF81C91DFF81CA1DFF81CB1DFF8DB
:1005F0001CE1914232D9994201D101212BE06145A0
:1006000001D1102127E0A94202D14FF4807122E0EC
:10061000B14202D14FF480511DE0B94202D14FF4F2
:10062000803118E0414502D14FF4801113E0494573
:1006300001D101210FE0514501D110210BE05945B5
:1006400002D14FF4807106E0714502D14FF4805120
:1006500001E04FF480312E4A116036E0994201D119
:10066000012130E0614501D110212CE0A94202D1E5
:100670004FF4807127E0B14202D14FF4805122E063
:10068000B94202D14FF480311DE0414502D14FF40F
:10069000801118E0914202D14FF0807113E049457A
:1006A00001D101210FE0514501D110210BE0594545
:1006B00002D14FF4807106E0714502D14FF48051B0
:1006C00001E04FF48031134A5160012180F821107C
:1006D000002180F82010416B01B188472046BDE819
:1006E000F09F000080000240080002401C00024011
:1006F0003000024044000240580002406C000240BA
:10070000080402401C040240300402404404024039
:1007100004040240000002402DE9F05FC16B0A684A
:1007200001680B68D0F840B04FF0040C0CFA0BFCD9
:100730001CEA020FDFF880C2A04CA14DA14EA24FCF
:10074000DFF88882DFF88892DFF888A270D013F093
:10075000040F7ED00A6812F0200F03D10A6822F03D
:1007600004020A609C4A0168914233D9614501D173
:1007700004212CE0A14201D1402128E0A94202D16C
:100780004FF4806123E0B14202D14FF480411EE07A
:10079000B94202D14FF4802119E0414502D14FF412
:1007A000800114E0494501D1042110E0514501D1F7
:1007B00040210CE0894A914201D1091507E0884A9D
:1007C000914202D14FF4804101E04FF48021854AEB
:1007D000116038E0614501D1042132E0A14201D12C
:1007E00040212EE0A94202D14FF4806129E0B142BC
:1007F00002D14FF4804124E0B94202D14FF480216C
:100800001FE0414502D14FF480011AE0914202D12C
:100810004FF0806115E0494501D1042111E05145B7
:1008200001D140210DE06D4A914202D1091508E045
:100830000FE06B4A914202D14FF4804101E04FF446
:100840008021694A5160C16A002970D0BDE8F05F1B
:1008500008474FF0020E0EFA0BFE1EEA020F67D099
:1008600013F0020F64D00A6812F0200F06D10A6854
:1008700022F00A020A60012180F82110564A01681C
:10088000914233D9614501D102212CE0A14201D12D
:10089000202128E0A94202D14FF4007123E0B142A7
:1008A00002D14FF400511EE0B94202D14FF40031A1
:1008B00019E0414502D14FF4001114E0494501D13E
:1008C000022110E0514501D120210CE0434A914220
:1008D00001D1491507E0424A914202D14FF400513B
:1008E00001E04FF400313F4A116039E0614501D128
:1008F000022133E0A14201D120212FE0A94202D1FF
:100900004FF400712AE0B14202D14FF4005125E0CA
:10091000B94202D14FF4003120E0414502D14FF4F9
:1009200000111BE0914204D14FF0007116E041E04C
:100930001FE0494501D1022110E0514501D120219C
:100940000CE0264A914201D1491507E0244A914220
:1009500002D14FF4005101E04FF40031224A5160BE
:10096000002180F82010816A002923D0BDE8F05FC3
:1009700008474FF0080C0CFA0BFC1CEA020F19D0C8
:1009800013F0080F16D00A6822F00E020A6090F8E1
:100990004020C36B012101FA02F25A60816380F8A2
:1009A0002110002180F82010016B002902D0BDE841
:1009B000F05F0847BDE8F09F080002401C000240BD
:1009C0003000024044000240580002406C000240E7
:1009D000080402401C04024080000240300402402F
:1009E00044040240040402400000024010B4002805
:1009F0000ED0224B0168224A99420CD2214B0B4463
:100A0000A2FB03321209920002641F4AC2630BE088
:100A100010BC012070471D4B0B44A2FB033212098E
:100A2000920002641A4AC263022280F821200A68F6
:100A30006FF30D12D0F808C04368046943EA0C0351
:100A4000D0F80CC04CEA040C43EA0C03D0F814C0F4
:100A500043EA0C03D0F818C043EA0C03D0F81CC0DA
:100A600043EA0C031A430A6000218163012280F8E3
:100A7000212080F8201010BC00207047080402409C
:100A8000CDCCCCCCF8FFFDBF00000240F8FBFDBF91
:100A90000004024070B50446002594F820000128A7
:100AA0000DD0012084F8200094F821C00020BCF172
:100AB000010F06D084F820000225284670BD0220D0
:100AC00070BD4FF0020C84F821C0A0632068D0F8FC
:100AD00000C02CF0010CC0F800C02046FFF712FD4A
:100AE000E06A28B12068016841F00E01016009E068
:100AF0002068016821F0040101602068016841F06C
:100B00000A0101602068016841F001010160D4E739
:100B100070B5044600F030F90546B4F1FF3F02D04D
:100B200004480078044400F027F9401BA042FAD39F
:100B300070BD0000040000207047000010B504499B
:100B40000A68024202D00860FFF7F6FF10BD0000FD
:100B5000140401402DE9F84F4FF0000C00230A68FF
:100B6000002A7DD0DFF8E4810F27A8F1040A08F1FC
:100B70000409AAF1040B012202FA0CF60A683240B9
:100B8000B2426ED1DFF8C8E14C68A4EB0E057445A3
:100B90002BD00DDC032C34D005DC34B3012C19D060
:100BA000022C2FD11BE0112C16D0122C2AD119E0C7
:100BB000B5F5881F19D006DCB5F5803F15D0B5F521
:100BC000801F1FD111E0B5F5001F0ED0B5F5041F31
:100BD00018D10AE0CB6815E0CB681B1D12E0CB688A
:100BE00008330FE0CB680C330CE08B6823B1012B8A
:100BF00004D00823466105E0042303E008230661CE
:100C000000E00023B2F5807F01D2054601E000F14B
:100C1000040502D24FEA8C0403E0ACF108044FEA69
:100C200084042E6807FA04FE26EA0E0603FA04F48A
:100C300046EA04042C604C6814F0805F7DD0454C7B
:100C4000A56945F00105A561A46904F001040094BB
:100C50002CF0030404F1804404F58034A66801E01C
:100C600072E06AE04FEA8C754FEA157507FA05FEE7
:100C700026EA0E0EA0F18046B6F584361ED0B6F5F3
:100C800080661DD0B6F580661CD0B6F580661BD098
:100C9000B6F580661AD0B6F5806619D0062606FA33
:100CA00005F545EA0E05A5604C6814F4801F11D0C7
:100CB000D8F800401443C8F8004010E00026EEE7E2
:100CC0000126ECE70226EAE70326E8E70426E6E742
:100CD0000526E4E7D8F800409443C8F800404C6883
:100CE00014F4001F05D0D9F800401443C9F800409F
:100CF00004E0D9F800409443C9F800404C6814F46B
:100D0000003F05D0DAF800401443CAF8004004E080
:100D1000DAF800409443CAF800404C6814F4803F6D
:100D200005D0DBF800402243CBF8002005E0DBF8DB
:100D3000004024EA0202CBF800200CF1010C0A6802
:100D400032FA0CF27FF417AFBDE8F88F08040140C7
:100D50000000111000100240C26821EA0203114095
:100D600043EA014101617047002A01D001617047E7
:100D70000904016170470000014880687047000065
:100D800004000020024881680278114481607047A5
:100D90000400002010B50748016841F0100101600F
:100DA000032000F08BF80F2000F006F800F026F882
:100DB000002010BD0020024070B504460D4D4FF4D8
:100DC0007A712878B1FBF0F00B490968B1FBF0F0BB
:100DD00000F0AAFB08B1012070BD102C07D2002240
:100DE0002146501E00F036F86C60002070BD0120D6
:100DF00070BD000004000020000000200C4808B571
:100E0000816941F001018161816901F00101009175
:100E1000C16941F08051C161C06900F0805000900B
:100E20000448416821F0E06141F00071416008BD73
:100E3000001002400000014000280ADB00F01F0102
:100E4000012202FA01F14009800000F1E020C0F81F
:100E50000011704710B4184B1B68C3F30223C3F191
:100E6000070CBCF1040F01D94FF0040C1C1D072C1A
:100E700001D2002300E0DB1E012404FA0CFCACF1DB
:100E8000010C0CEA0101994004FA03F35B1E1A40BD
:100E90001143002806DB00F1E020090180F800146E
:100EA00010BC704700F00F0000F1E020090180F84D
:100EB000141D10BC704700000CED00E000F00700AE
:100EC000064A11684FF6FF03194041EA002040F03E
:100ED000FD7040F080601060704700000CED00E095
:100EE0002DE9F04704460D46002C17D0DFF85C8151
:100EF000D8F8000000F00700A84212D2D8F800008D
:100F000020F007002843C8F80000D8F8000000F0DF
:100F10000700A84205D00120BDE8F0870120BDE808
:100F2000F08720684A4E10F0020F14D010F0040F22
:100F300003D0706840F4E0607060207810F0080F13
:100F400003D0706840F460507060706820F0F00169
:100F5000A06808437060207810F0010F3AD06068F4
:100F6000012806D002280BD0316811F0020F27D0DB
:100F70000AE0316811F4003F06D10120BDE8F08796
:100F8000316811F0007F18D0716821F00301084327
:100F90007060FFF7F1FE07467068616800F00C00B2
:100FA000B0EB810F16D041F28839FFF7E5FEC01B88
:100FB000484508D90320BDE8F0870120BDE8F08747
:100FC0000120BDE8F0877068616800F00C00B0EBAC
:100FD000810FEAD1D8F8000000F00700A8420FD92D
:100FE000D8F8000020F007002843C8F80000D8F81F
:100FF000000000F00700A84202D00120BDE8F08701
:10100000207810F0040F05D07068E16820F4E060EB
:1010100008437060207810F0080F06D070682169CE
:1010200020F4605040EAC100706000F03FF8716841
:10103000084AC1F30311515CC840074908600748DA
:101040000068FFF7B9FE0020BDE8F08700200240ED
:1010500000100240442B000800000020080000207F
:1010600001480068704700000000002000B5FFF74D
:10107000F7FF04494968044AC1F30221515CC840A2
:1010800000BD000000100240542B000800B5FFF71F
:10109000E7FF04494968044AC1F3C221515CC840D2
:1010A00000BD000000100240542B00080E4B596890
:1010B0000E4801F00C02042A11D0082A0FD10C4866
:1010C000C1F38342805C11F4803F09D05968094A1A
:1010D000C1F34041515C054A5043B0FBF1F0704709
:1010E00005494843704700000010024000127A0092
:1010F0005E2B00085C2B000800093D002DE9F84F2D
:101100000446002C0FD02078F84D10F0010F6CD061
:10111000686800F00C0004280CD0686800F00C002F
:10112000082803D010E00120BDE8F88F686810F4AB
:10113000803F09D0286810F4003F56D0606800282E
:1011400053D10120BDE8F88F6068B0F5803F15D01D
:10115000C8B1B0F5A02F1FD0286820F480302860D7
:10116000286820F480202860606858B3FFF704FEE8
:101170000646286810F4003F17D036E0286840F48F
:1011800080302860F0E7286820F4803028602868E4
:1011900020F480202860E7E7286840F48020286059
:1011A000286840F480302860DEE7FFF7E5FD801B0B
:1011B000642802D90320BDE8F88F286810F4003FA6
:1011C000F3D012E0FFF7D8FD0646286810F4003F80
:1011D0000BD0FFF7D1FD801B642802D90320BDE8A6
:1011E000F88F286810F4003FF3D12078C04F10F03A
:1011F000020F4FF0010B4FF0000854D0686810F058
:101200000C0F14D0686800F00C00082803D168683F
:1012100010F4803F0BD0206978B3C7F800B0FFF717
:10122000ABFD0646286810F0020F12D01DE02868BA
:1012300010F0020F05D02069012802D00120BDE87E
:10124000F88F2868616920F0F80040EAC100286042
:1012500029E0FFF791FD801B022802D90320BDE899
:10126000F88F286810F0020FF3D02868616920F029
:10127000F80040EAC100286015E0FFE7C7F80080E9
:10128000FFF77AFD0646286810F0020F0BD0FFF733
:1012900073FD801B022802D90320BDE8F88F28685F
:1012A00010F0020FF3D1207810F0080F30D09148E1
:1012B000A169C1B1C0F800B0FFF75EFD0646686ADB
:1012C00010F0020F0BD1FFF757FD801B022802D947
:1012D0000320BDE8F88F686A10F0020FF3D00120F8
:1012E00001F05CF814E0C0F80080FFF745FD064609
:1012F000686A10F0020F0BD0FFF73EFD801B02283A
:1013000002D90320BDE8F88F686A10F0020FF3D10C
:10131000207810F0040F6FD00026E86910F0805F8D
:1013200008D1E86940F08050E861E86900F0805039
:1013300000900126DFF8C0A1DAF8000010F4807FE9
:101340001BD1DAF8000040F48070CAF80000FFF703
:1013500013FD8146DAF8000010F4807F0DD1FFF70D
:101360000BFDA0EB0900642802D90320BDE8F88F2B
:10137000DAF8000010F4807FF1D0E068012816D080
:10138000D0B1052821D0286A20F001002862286AFF
:1013900020F004002862E06841F2883A68B3FFF761
:1013A000EBFC8146286A10F0020F17D03AE0286A59
:1013B00040F001002862EEE7286A20F00100286270
:1013C000286A20F004002862E5E7286A40F004005B
:1013D0002862286A40F001002862DCE7FFF7CCFCB5
:1013E000A0EB0900504502D90320BDE8F88F286A18
:1013F00010F0020FF2D015E01AE0FFE7FFF7BCFC97
:101400008146286A10F0020F0CD0FFF7B5FCA0EB64
:101410000900504502D90320BDE8F88F286A10F072
:10142000020FF2D1012E03D1E86920F08050E8616B
:10143000E069E8B3696801F00C0108295ED0022870
:1014400010D0C7F86080FFF797FC0446286810F0BA
:10145000007F66D0FFF790FC001B022841D90320D3
:10146000BDE8F88FC7F86080FFF786FC064628685D
:1014700010F0007F0BD0FFF77FFC801B022802D901
:101480000320BDE8F88F286810F0007FF3D1206AB0
:10149000B0F5803F05D16868A16820F400300843AA
:1014A0006860616A206A0843696821F4741100E089
:1014B00037E008436860C7F860B0FFF75DFC04469A
:1014C000286810F0007F2CD1FFF756FC001B022883
:1014D00002D90320BDE8F88F286810F0007FF3D010
:1014E0001FE0286810F0007FB4D11AE0001002401D
:1014F00000004242800442420070004001280DD0AA
:101500006868226A00F48031914204D1616A00F473
:101510007010884205D00120BDE8F88F0120BDE899
:10152000F88F0020BDE8F88F401EB0F1807F01D316
:10153000012070474FF0E0214861044AF02010700C
:1015400000208861072008610020704723ED00E03B
:101550007047704790F83C20012A2CD0012280F877
:101560003C20CA680023D1F808C022F4407242EA45
:101570000C02D1F804C022F4806242EA0C02D1F8D5
:1015800000C022F4006242EA0C02D1F810C022F43A
:10159000805242EA0C02D1F814C022F4005242EA0E
:1015A0000C02C96922F4804211430268516480F838
:1015B0003C30002070470220704730B490F83C2047
:1015C000012A32D0012480F83C40022280F83D20DC
:1015D0000268D2F804C093682CF0700C0D6845EADC
:1015E0000C0CC2F804C00268A2F1804CBCF5963C19
:1015F0000ED0BCF5006C0BD0B2F1804F08D01CF5BA
:10160000983C05D0BCF5806C02D0BCF5806C04D150
:1016100023F0800349681943916080F83D40002120
:1016200080F83C1030BC0020704730BC022070476E
:1016300010B50446002909D004290AD008290BD086
:1016400094F8450001280AD0012010BD94F842000A
:10165000F8E794F84300F5E794F84400F2E7022035
:1016600099B3042935D0082936D084F845000422DE
:10167000206800F052FF2068416C41F40041416451
:101680002068A0F18041B1F5963114D0B1F5006128
:1016900011D0B0F1804F0ED011F598310BD0B1F5CB
:1016A000806108D0B1F5806105D0016841F0010189
:1016B0000160002010BD816801F007010629F8D003
:1016C000016841F001010160F3E7FFE784F842009F
:1016D000CDE784F84300CAE784F84400C7E710B5B3
:1016E0000446002C03D094F83D0010B107E001201F
:1016F00010BD002084F83C00204600F01FF80220B6
:1017000084F83D00211D206800F0A8FE012084F827
:10171000460084F83E0084F83F0084F8400084F8D6
:10172000410084F8420084F8430084F8440084F8BF
:10173000450084F83D00002010BD000000B585B0D4
:1017400000210091019102910391204A01682048F3
:10175000914226D1816941F400618161816901F47E
:1017600000610491816941F04001816180696946AD
:1017700000F0400004904FF4004000901548FFF73F
:10178000E9F91548416821F0C00141F0E06141F0FC
:10179000C0014160002211461820FFF75BFB1820B2
:1017A00010E00E4A91420FD1C16941F01001C161B0
:1017B000C069002200F01000049011463620FFF7A7
:1017C00049FB3620FFF738FB05B000BD002C014077
:1017D00000100240001801400000014000100040CD
:1017E00070B50446002594F83C00012818D0012665
:1017F00084F83C60022084F83D002068826822F072
:10180000770222F47F4282600868502839D00EDCCB
:10181000202854D006DC002851D0102811D14EE0E9
:10182000022070BD30284AD040280AD13DE060280F
:1018300031D070280DD0B0F5805F03D0B0F5005FD7
:1018400013D0012584F83D60002084F83C00284630
:1018500070BDCB684A688968206800F06DFE20681A
:10186000816841F077018160ECE7CB684A6889685C
:10187000206800F061FE2068816841F48041816049
:10188000E0E7CA684968206800F044FF50212068FA
:1018900000F05DFED6E7CA684968206800F04DFF99
:1018A0006021206800F053FECCE7CA6849682068D0
:1018B00000F030FF4021206800F049FEC2E72268B6
:1018C0000146104600F043FEBCE770472DE9F041A9
:1018D00004462068C56806694FF0000716F0020F3D
:1018E00016D015F0020F13D0F91E016101202077E8
:1018F0002068806910F0030F03D02046FFF7E5FF52
:1019000005E0204600F0C2F8204600F05BF927779A
:1019100016F0040F18D015F0040F15D021686FF0E1
:1019200004000861022020772068806910F4407F5D
:1019300003D02046FFF7C9FF05E0204600F0A6F8D7
:10194000204600F03FF9277716F0080F18D015F061
:10195000080F15D021686FF0080008610420207777
:101960002068C06910F0030F03D02046FFF7ADFFD9
:1019700005E0204600F08AF8204600F023F927779A
:1019800016F0100F18D015F0100F15D021686FF059
:1019900010000861082020772068C06910F4407F9B
:1019A00003D02046FFF791FF05E0204600F06EF8D7
:1019B000204600F007F9277716F0010F09D015F03F
:1019C000010F06D021686FF001000861204600F089
:1019D0005BF916F0800F09D015F0800F06D0216852
:1019E0006FF0800008612046FFF7B2FD16F0400F4F
:1019F00009D015F0400F06D021686FF04000086153
:101A0000204600F042F916F0200F0BD015F0200F01
:101A100008D021686FF0200008612046BDE8F04141
:101A2000FFF797BDBDE8F08100B585B000210091BA
:101A30000191029103910068104988421BD110481E
:101A4000816941F0400181618069694600F0400090
:101A500004904FF47C5000900220019003900948BC
:101A6000FFF778F80848416821F0C00141F0E061D3
:101A700041F0C001416005B000BD0000002C0140F4
:101A8000001002400018014000000140704770B58E
:101A900004460D46002694F83C0001280FD0012092
:101AA00084F83C006AB1042A1FD0082A32D00C2ADC
:101AB00044D00126002084F83C00304670BD02204E
:101AC00070BD2946206800F04BFD2068816941F017
:101AD000080181612068816921F004018161206829
:101AE00081692A6911438161E4E72946206800F091
:101AF0006FFD2068816941F400618161206881691E
:101B000021F480618161206881692A6941EA0221AA
:101B10008161CFE72946206800F096FD2068C16901
:101B200041F00801C1612068C16921F00401C1616F
:101B30002068C1692A691143C161BBE72946206851
:101B400000F0BEFD2068C16941F40061C1612068F8
:101B5000C16921F48061C1612068C1692A6941EAD3
:101B60000221C161A6E710B50446002C03D094F809
:101B70003D0010B107E0012010BD002084F83C00BA
:101B8000204600F01EF8022084F83D00211D206848
:101B900000F064FC012084F8460084F83E0084F8DC
:101BA0003F0084F8400084F8410084F8420084F843
:101BB000430084F8440084F8450084F83D00002088
:101BC00010BD70477047000010B50446002909D0C9
:101BD00004290AD008290BD094F8410001280AD022
:101BE000012010BD94F83E00F8E794F83F00F5E7B7
:101BF00094F84000F2E70220B9B3042939D008294B
:101C00003AD084F841000122206800F077FC1C499A
:101C100020681C4A884201D0904203D1436C43F4AF
:101C2000004343642068884215D0904213D0B0F13D
:101C3000804F10D0A0F18041B1F580610BD0B1F59B
:101C4000806108D0B1F5806105D0016841F00101E3
:101C50000160002010BD816801F007010629F8D05D
:101C6000016841F001010160F3E7FFE784F83E00FD
:101C7000C9E784F83F00C6E784F84000C3E70000E6
:101C8000002C014000340140704770477047704796
:101C9000F8B5044622681068D168536900F00F0C4B
:101CA000BCF1000F0AD110F0200F07D011F0200F67
:101CB00004D02046BDE8F84000F0E9BD0025BCF1A5
:101CC000000F74D003F0010C01F490765CEA060674
:101CD0006DD010F0010F06D011F4807F03D0626C3C
:101CE00042F00102626410F0040F06D013F0010FFD
:101CF00003D0626C42F00202626410F0020F06D060
:101D000013F0010F03D0626C42F00402626410F021
:101D1000080F08D001F0200252EA0C0203D0626CD6
:101D200042F008026264626C002A35D010F0200F85
:101D300005D011F0200F02D0204600F0A8FD206849
:101D40004069C0F38010616C01F00801084329D09C
:101D5000204600F05AFD2068406910F0400F1CD06A
:101D60002068143050E8001F21F0400140E80012C4
:101D7000002AF5D1E06B60B15D494163E06BFEF78D
:101D800011FC002808D0E06B416B01B0BDE8F040C9
:101D900008472046FFF77BFFF8BD2046FFF777FF97
:101DA000F8BD04E02046FFF772FF6564F8BD236BC1
:101DB000012B7DD110F0100F7AD011F0100F77D0D9
:101DC00010685068009050694FF0200310F0400FE9
:101DD0004FF0020643D0E16B0868406880B20028EB
:101DE000E4D0A28D8242E1D9E085886920282DD0F7
:101DF00020680C3050E8001F21F4807140E8001288
:101E0000002AF5D12068143050E8001F21F00101AC
:101E100040E80012002AF5D12068143050E8001F75
:101E200021F0400140E80012002AF5D184F8423048
:101E3000256320680C3050E8001F21F0100140E8B5
:101E40000012002AF5D1E06BFEF787FB6663A08DD8
:101E5000E18D401A81B22046FFF718FFF8BDA08D32
:101E6000E18D401A81B2E08D0028F7D00029F5D02D
:101E700020680C3050E8002F22F4907240E8002CCB
:101E8000BCF1000FF4D12068143050E8002F22F08C
:101E9000010240E8002CBCF1000FF4D184F842307C
:101EA000256320680C3050E8002F22F0100200E07B
:101EB00008E040E80023002BF3D166632046FFF7DB
:101EC000E5FEF8BD10F0800F07D011F0800F04D0B0
:101ED0002046BDE8F84000F0A3BD10F0400FF0D060
:101EE00011F0400FEDD02046BDE8F84000F0B4BC42
:101EF0006327000870B50446002C04D094F8410014
:101F0000002510B106E0012070BD84F84050204645
:101F100000F024F8242084F841002068C16821F4EE
:101F20000051C160204600F017FD2068016921F4CE
:101F3000904101612068416921F02A0141612068D6
:101F4000C16841F40051C1606564202084F84100FB
:101F500084F842006563002070BD0000F0B585B0D4
:101F600000240646009401940294039400682C49CE
:101F7000884253D12B48816941F480418161816954
:101F800001F480410491816941F00401816180691B
:101F9000254D00F0040004904FF4007000900220E2
:101FA00001900320039069462846FEF7D3FD2815CB
:101FB000CDE90004694628460294FEF7CBFD1C4D8E
:101FC0001A48802701C5102091C5194845F81049C5
:101FD0006C61AC61EC61FEF709FD08B1FEF7BBFA7C
:101FE000B5636E62124D114844351430C5E90004E2
:101FF000C5E902472C616C61AC612846EC61FEF7D3
:10200000F5FC08B1FEF7A7FAF5630022114625207A
:102010006E62FEF71FFF2520FEF70EFF05B0F0BD34
:102020000038014000100240000801404400024016
:10203000680100207047000037B5044694F841005D
:10204000202802D003B0022030BD0199002933D0EE
:10205000002A31D02162A284E2840020606421231E
:1020600084F84130D4F838C0154BCCF82830D4F877
:1020700038C0144BCCF82C30D4F838C0124BCCF804
:102080003030A36B58632068134600F1040C62469D
:10209000A06BFEF7FFFC21686FF04000086020682D
:1020A000143050E8001F41F0800140E80012002A7F
:1020B000F5D103B0002030BD03B0012030BD0000D9
:1020C000BD270008012800087327000870477047E3
:1020D000FEE700000D4808B5416941F0010141618A
:1020E0004069002200F00100009011460E20FEF72A
:1020F000B1FE0E20FEF7A0FE002211460F20FEF7D3
:10210000A9FEBDE808400F20FEF796BE0010024071
:102110002DE9F04786B000253D48009501950295D0
:102120000395816941F040018161816901F04001BD
:102130000491816941F010018161816901F0100110
:102140000491816941F004018161816901F0040118
:102150000491816941F0080181618069DFF8B490E0
:1021600000F008000490012220214846FEF7FCFD03
:10217000DFF8A4A0012220215046FEF7F5FD274FED
:102180001C20CDE900070124694602944846FEF769
:10219000E1FC4FF0200801AA0226CDF8008082E879
:1021A000700069464846FEF7D5FCCDE90047694610
:1021B0001B480296FEF7CEFC01AACDF8008082E80B
:1021C000700069465046FEF7C5FC00220421062037
:1021D000FEF740FE0620FEF72FFE00220421082015
:1021E000FEF738FE0820FEF727FE00220421092012
:1021F000FEF730FE0920FEF71FFE002204210A2010
:10220000FEF728FE0A20FEF717FE06B0BDE8F087AD
:102210000010024000180140000C01400000311085
:102220000008014010B596B000240F94109411944A
:10223000129413941C2168461494FEF777F8202119
:1022400007A8FEF773F832483049C0E9001420218E
:10225000816040F20771C0E9031444618461FFF7B3
:102260003EFA08B1FEF777F94FF480500F900FA9AE
:102270002748FFF7B5FA08B1FEF76DF92448FFF7D4
:1022800072FC08B1FEF767F97020CDE9130413A9B9
:102290001F48FFF792F908B1FEF75DF96020CDE91C
:1022A00000044FF48070CDE90440029403940022AE
:1022B000694617480694FFF7EAFB08B1FEF74BF9A9
:1022C000042269461248FFF7E2FB08B1FEF743F922
:1022D000082269460E48FFF7DAFB08B1FEF73BF922
:1022E000079464200894CDE909404FF40050CDE9EB
:1022F0000B4007A906480E94FFF72CF908B1FEF72A
:102300002AF90348FFF790FB16B010BD002C0140DE
:10231000100000201CB500240F4800940D490194C2
:1023200001604721C0E901146321C16080218161FE
:10233000FFF7D5F908B1FEF70EF92020CDE900042A
:1023400069460548FFF739F9002801D0FEF703F97F
:102350001CBD000000100040580000200C4810B5C3
:102360000A4901604FF4E1314160002181600C2293
:10237000C160C0E904128161C161FFF7BBFD0028A3
:1023800003D0BDE81040FEF7E6B810BD00380140AC
:1023900020010020FEE7FEE77047000081B00749FA
:1023A0004FF4FA520968B1FBF2F14843009000BFC4
:1023B0000098411E0091FAD201B070470000002041
:1023C0007047FEF7DFBC30B58FB028216846FDF7B7
:1023D000ADFF14210AA8FDF7A9FF01210804CDE9EA
:1023E00000100024029402250491CDE907504FF417
:1023F000E01009906846FEF781FE08B172B6FEE76C
:102400000F20CDE90A054FF48060CDE90C40022190
:102410000AA80E94FEF764FD002801D072B6FEE70C
:102420000FB030BD704700000148FFF74FBA000001
:102430001000002010B520210548FEF78DFC20215A
:102440000448FEF789FCBDE810400348FFF73EBA98
:10245000000C01400018014058000020F0B4026850
:10246000214B224C224D234EDFF88CC098420AD0DB
:10247000604508D0B0F1804F05D0A04203D0A842FB
:1024800001D0B04203D122F070024F683A43984223
:102490000AD0604508D0B0F1804F05D0A04203D0EB
:1024A000A84201D0B04203D122F44072CC6822434A
:1024B0004C6922F08002224302608A68C2620A6884
:1024C0008262984201D0604501D10969016301210E
:1024D0004161016911F0010F03D0016921F001018F
:1024E0000161F0BC70470000002C01400004004076
:1024F00000080040000C00400034014001F01F01C2
:1025000001238B40D0F820C02CEA03030362036A46
:1025100002FA01F119430162704701F00F0104232F
:102520008B40D0F820C02CEA03030362036A02FA4E
:1025300001F1194301627047D0F808C02CF47F4CB8
:1025400042EA0322114341EA0C018160704782682C
:1025500022F07002114341F00701816070470000D2
:1025600070B4026A036A23F0010303624368D0F87F
:1025700018C02CF0700C2CF0030C0C6844EA0C0C06
:1025800022F002028C6822430F4C104DA04201D071
:10259000A84205D122F00802CE68324322F004029C
:1025A000A04201D0A84207D123F4807323F4007322
:1025B0004C6923438C6923434360C0F818C04968C1
:1025C0004163026270BC7047002C0140003401403E
:1025D00070B4026A036A23F0100303624368D0F800
:1025E00018C02CF4E04C2CF4407C0C684CEA042C11
:1025F00022F020028C6842EA0412114C114DA042D4
:1026000001D0A84206D122F08002CE6842EA06122A
:1026100022F04002A04201D0A84209D123F48063F5
:1026200023F400634C6943EA84038C6943EA84031E
:102630004360C0F818C049688163026270BC70478B
:10264000002C01400034014070B4026A036A23F494
:10265000807303624368D0F81CC02CF0700C2CF01F
:10266000030C0C6844EA0C0C22F400728C6842EAF9
:102670000422114C114DA04201D0A84206D122F4EF
:102680000062CE6842EA062222F48062A04201D0B3
:10269000A84209D123F4805323F400534C6943EA40
:1026A00004138C6943EA04134360C0F81CC04968F2
:1026B000C163026270BC7047002C014000340140CD
:1026C00010B4036A026A22F4805202624268D0F8AF
:1026D0001CC02CF4E04C2CF4407C0C684CEA042C1C
:1026E00023F400538C6843EA0433A0F18044B4F52A
:1026F000963402D0B4F5006404D122F480424C69CF
:1027000042EA84124260C0F81CC049680164036256
:1027100010BC7047036AD0F820C02CF0010CC0F840
:1027200020C0D0F818C02CF0F00C4CEA021223F0B4
:102730000A031943826101627047036AD0F820C01E
:102740002CF0100CC0F820C0D0F818C02CF4704C3D
:102750004CEA023223F0A00343EA011182610162D4
:10276000704710B5406A0021C185C184FFF78FFA18
:1027700010BD70B5446A20684069C0F3C01094F879
:1027800041100025212904D118B1E584204600F02C
:1027900070F820684069C0F3801094F84210222934
:1027A00004D118B1E585204600F02FF8606C40F0A8
:1027B000100060642046FFF76AFA70BD10B501464C
:1027C000486A0968096811F0200F02D0FFF77EFC03
:1027D00010BD0021C1840168143151E8002F22F09E
:1027E000800241E80023002BF5D101680C3151E84B
:1027F000002F42F0400241E80023002BF5D110BD2C
:1028000010B5406AFFF763FC10BD01680C3151E858
:10281000002F22F4907241E80023002BF5D10168CB
:10282000143151E8002F22F0010241E80023002B6F
:10283000F5D1016B012909D101680C3151E8002F54
:1028400022F0100241E80023002BF5D1202180F86E
:10285000421000210163704710B50168CA6822F078
:102860004002CA60202180F84110FFF72FFC0020B1
:1028700010BD01680C3151E8002F22F0C00241E880
:102880000023002BF5D1202180F84110704708B5B6
:1028900090F84210222901D0022008BD8268B2F5CA
:1028A000805F01D1016929B1816AB2F5805F1DD0D5
:1028B00052B10BE0816A02685268C2F308020A80D2
:1028C000816A891C816209E002697AB102685268F2
:1028D00002F07F020A70816A491C8162C18D491E23
:1028E0000904090CC18505D0002008BD02685268A2
:1028F0000A70F0E70168CA6822F02002CA60016825
:10290000CA6822F48072CA6001684A6922F0010232
:102910004A61202180F8421000214163026B012AA4
:1029200003D0FFF787FB002008BD016301680C316D
:1029300051E8002F22F0100241E80023002BF5D1CE
:1029400001680A6812F0100F02D00A684968009105
:10295000818DFFF79BF9E6E770B5044620680169B1
:10296000E26821F44051114301612169A0680843E4
:10297000616901432068C26822F4037222F4A05204
:102980001143C16020684169A26921F4407111437B
:1029900041612068A0F18041B1F59C313AD0FEF749
:1029A00065FB00EBC00101EB001061681B4A890068
:1029B000B0FBF1F3A2FB0353B0FBF1FC5B096FF03A
:1029C00018056B430CEB83034FF0320C0CEB031335
:1029D000A2FB03535B0903F0F005B0FBF1F3A2FB8C
:1029E00003635B0905EB0313B0FBF1F5B0FBF1F0FA
:1029F000A2FB001040096FF01801484305EB80006E
:102A00000CEB0010A2FB00102168C0F34310184427
:102A1000886070BDFEF73AFBC3E700001F85EB51ED
:102A200090F84110212901D0022070478168B1F54A
:102A3000805F01D1016961B1016A4A1C02620268CA
:102A400009785160C18C491E0904090CC1840AD05F
:102A500013E0016A02680988C1F308015160016A44
:102A6000891C0162EEE70168CA6822F08002CA6030
:102A70000068C16841F04001C1600020704700005B
:102A80000148FFF705B9000020010020FEE7000023
:102A90004FF00A08FEF77EF9FFF795FCFFF738FBC9
:102AA000FFF718FBFFF736FCFFF758FCFFF7BAFB00
:102AB0001F4801680A6842F001020A600068C168A4
:102AC00041F00101C16000211A48FFF77DF804219F
:102AD0001848FFF779F808211648FFF775F8002124
:102AE0001448FEF7A5FD04211248FEF7A1FD0821B8
:102AF0001048FEF79DFD0F4C4FF4FA756E0040F242
:102B0000DC5743460CA280210C48FDF783FB0028CC
:102B100004DD82B209490A48FFF78EFA206845634E
:102B2000206886632068C7636420FDF7F1FFE8E74B
:102B3000580000201000002025640A00A00000209A
:102B4000200100200000000000000000010203043A
:102B50000607080900000000010203040102020345
:102B60000405060708090A0B0C0D0E0F10100000D3
:102B7000902B000800000020100000006C010008ED
:102B8000A02B000810000020400800008801000869
:102B900000127A0001000000100000000000000098
:0400000508000131BD
:00000001FF
